:10000000187401206DD302003B7402003D7402009D
:100010003F74020041740200437402004574020000
:1000200045740200457402004574020045740200E4
:100030004574020045740200FB2902004774020067
:0410000054494E49B8
:102000001800000002000030000000000400004042
:102010000000000006003412000000000000000074
:0430000000000000CC
:0440000000000000BC
:020000040001F9
:04000000FC2A0000D6
:0410000000000000EC
:102000000A000D0613112C3012345678000000001F
:0430000028000A0298
:0C4000000164000000000000000000004F
:0450000001010000AA
:020000040002F8
:100000000020DFF8641808600020DFF85C18486002
:100010000020DFF8541808720020DFF84C184872EE
:10002000704710B504002000DFF83C180A2201F0E8
:1000300065FC10BD17B4DFF8300800A91CC91CC04E
:100040000C390C3817BC70472DE9F8430400A14661
:10005000012005000120060000208046EDB2002DA1
:1000600000F09C815FFA89F94846002822D00128D7
:1000700035D0022849D003285CD004286FD0052849
:1000800000F0C180062800F0D980072800F0EB803E
:10009000082800F00981092800F040810B2800F0B1
:1000A00065810C2870D00D2800F083800E2800F0A8
:1000B000958068E100F034FA0700FFB2002F02D10A
:1000C000012081460AE0FFB2012F02D10B208146B8
:1000D00004E0FFB2022F01D10B20814653E1012041
:1000E00000F04AFE0700FFB2002F02D10220814635
:1000F0000AE0FFB2012F02D10020814604E0FFB2E6
:10010000022F01D10B2081463DE100F068FE07007F
:10011000FFB2002F02D1032081460AE0FFB2012F77
:1001200002D10020814604E0FFB2022F01D10B2052
:10013000814628E100F019FA0700FFB2002F02D132
:10014000042081460AE0FFB2012F02D1002081463F
:1001500004E0FFB2022F01D10B20814613E100F031
:10016000E7FC0700FFB2002F02D10C2081460AE015
:10017000FFB2012F02D10020814604E0FFB2022F1E
:1001800001D100208146FEE001F03BF90700FFB2FB
:10019000002F02D10D2081460AE0FFB2012F02D1CB
:1001A0000020814604E0FFB2022F01D100208146E9
:1001B000E9E001F055F90700FFB2002F02D10E204F
:1001C00081460AE0FFB2012F02D10020814604E0FF
:1001D000FFB2022F01D100208146D4E001F0E2F805
:1001E0000700FFB2002F02D1052081460AE0FFB2CE
:1001F000012F02D10020814604E0FFB2022F01D17D
:1002000000208146BFE000F0F7FC0700FFB2002F9E
:1002100004D106208146002080460EE0FFB2012F67
:1002200004D10420814618F1010806E0FFB2022F34
:1002300003D10020804600208146A4E000F03EFD6E
:100240000700FFB2002F02D1072081460AE0FFB26B
:10025000012F02D10420814604E0FFB2022F01D118
:10026000002081468FE0DFF808060078012818D1C9
:1002700000F0A1F90700FFB2002F06D10020DFF83F
:10028000F0150870082081460DE0FFB2012F02D161
:100290000B20814607E0FFB2022F04D100208146E7
:1002A00001E0082081466EE000A800F0C6F90700D2
:1002B000FFB2002F19D1DFF8BC0500789DF80010BF
:1002C000884204D0DFF8AC05007800F0FAFB9DF816
:1002D0000000DFF8A0150870FFF792FE012006006D
:1002E000092081460020804617E0FFB2012F0DD182
:1002F000DFF88005007800F0E4FB062081464FF42B
:100300007A7001F03BFB18F11E0806E0FFB2022FE5
:1003100003D1002081460020804634E0DFF85405F8
:10032000027844F64221DFF8500500F0E4F90700B6
:10033000FFB2002F02D10020050016E0FFB2012F0E
:100340000ED1F6B2012E06D140F6B83001F016FB00
:100350000920814601E0062081460020060004E0D5
:10036000FFB2022F01D1002081460CE000F030F8EE
:10037000002080460120DFF8F814087001200600F4
:1003800000208146FFE71FFA88F8B8F1510FFFF609
:1003900065AE002080460B2081465FE6BDE8F18314
:1003A000DFF8D80400787047DFF8D0140870704781
:1003B00080B50020DFF8C414087001F0ABFB01F039
:1003C000D1FB40F2DC5001F0D9FA00F001F801BD98
:1003D00080B50020DFF8A4140870FFF711FE01F0CB
:1003E000AFFB4FF47A7001F0C9FA01F0AFFB4FF4A4
:1003F0007A6001F0C3FA00F0FDFD01BDDFF874047E
:10040000007870472DE9F041E0B004000D001600BF
:100410000020804600200700ADB2002D56D001F02C
:1004200081FC002809D101F083FC00A91FFA88F89B
:1004300008F8010018F10108F1E700200700BFB239
:100440001FFA88F847450CD200A8BFB2385CBFB28B
:100450003855BFB2B6B2B74201D300205DE07F1C71
:10046000EDE70020BFB238556D1EDFF814142000F0
:1004700001F056FE002802D0B6B2802E14D1DFF86B
:100480000414200001F04CFE002806D0DFF8F81319
:10049000200001F045FE002806D1DFF8F01320000F
:1004A00001F03EFE002801D0012036E0DFF8E01325
:1004B000200001F035FE002801D000202DE064234B
:1004C00000220021002001F08CFAA5E7BFB2002F26
:1004D00001D1022021E0DFF8A813200001F020FE66
:1004E000002802D0B6B2802E14D1DFF89813200075
:1004F00001F016FE002806D0DFF88C13200001F072
:100500000FFE002806D1DFF88413200001F008FE5A
:10051000002801D0012000E0002060B0BDE8F0819B
:10052000F0B591B04025CC2600AF3200290038004C
:1005300001F0FEFD01F016FC032132A001F0C7FB23
:1005400040221E2100A8FFF75DFF0400E4B2002C4A
:1005500004D0022C04D005D2002004E0012002E0E7
:10056000022000E0012011B0F0BDF0B599B0602587
:10057000CC2600AF32002900380001F0D9FD01F08F
:10058000F1FB0921DFF8A40501F0A1FB602228217D
:1005900000A8FFF737FF0400E4B2002C04D0022CBF
:1005A00004D005D2002004E0012002E0022000E097
:1005B000012019B0F0BDF0B591B04025CC2600AFB8
:1005C00032002900380001F0B3FD01F0CBFB0D2112
:1005D000DFF8200601F07BFB40223C2100A8FFF75A
:1005E00011FF0400E4B2002C04D0022C04D005D288
:1005F000002004E0012002E0022000E0012011B010
:10060000F0BD000041540D0030B4020001252C0063
:100610000025280000290ED000252B008B420AD28D
:10062000CD1AAD1815F8015C303D04FB05000A2514
:100630006C435B1CF2E730BC70472DE9F04FA1B072
:10064000040000200600002007005FF060095FF052
:10065000CC0A0DF1200B52464946584601F068FD80
:1006600001F080FB0B21DFF8840801F030FB6022F1
:10067000282108A8FFF7C6FE0500EDB2012D2DD1F7
:100680000020804608A801F087FD1FFA88F8804501
:1006900022D208A81FFA88F818F8000020280FD1E5
:1006A0007F1CFFB2012F08D108A81FFA88F818EBA9
:1006B0000000407830382070FFE70020060008E096
:1006C00008A81FFA88F818F8000000A9F6B27054BC
:1006D000761C18F10108D5E7002009E0EDB2002DE5
:1006E00001D1012004E09DF800008DF800000220F7
:1006F00021B0BDE8F08F2DE9F04FADB080460C0081
:100700001500A4B203944046C0B202905FEA1820DC
:10071000C0B201905FEA1840C0B200905FEA18636F
:10072000DBB2EDB22A00DFF8C41814A801F050FDC6
:1007300007005FF040095FF0CC0A0DF1100B524644
:100740004946584601F0F4FC01F00CFBBFB23900F9
:1007500014A801F0BCFA4022C82104A8FFF752FEF9
:100760000600F6B2002E04D0022E04D005D20020DE
:1007700004E0012002E0022000E001202DB0BDE8ED
:10078000F08F2DE9F04FADF5037D04000D0016004C
:100790004FF480775FF000080DF584794246390008
:1007A000484601F0C5FC4FF480795FF0000A0DF176
:1007B000080B52464946584601F0BAFCADB22B0030
:1007C000F6B23200DFF8281842A801F001FDADF8BA
:1007D00000000D2042A9BDF80020505401F0C2FADB
:1007E000BDF80000411C42A801F071FA20220A2144
:1007F00002A8FFF707FE8DF802001CA102A801F075
:100800008FFC0190019800281AD0ADB22900200079
:1008100001F05DFA4FF48072642102A8FFF7F2FD47
:100820008DF802009DF80200002804D0022804D0B0
:1008300005D2002012E0012010E002200EE00CE0C2
:10084000ADB22900200001F042FA0D2020700A20EC
:1008500060700221200001F03AFA01200DF5037DBD
:10086000BDE8F08F000000007C6F01200D0A400001
:10087000CD0B0020087001204F5828790970012005
:1008800090D3020098D30200A0D30200A8D30200A4
:10089000B0D302002DE9FF4FADF5037D8498002809
:1008A00001D1002009E101208DF8000000208DF821
:1008B00001000A2006000020070000208046BDF845
:1008C00014329DF81822DFF8781A03A801F080FC92
:1008D000814601F047FA1FFA89F9494603A801F059
:1008E000F6F94FF400700290002001900DF10C0B0E
:1008F000019A0299584601F01BFC9DF8000000285F
:1009000000F0CF80761EF6B2002E03D100208DF8C5
:10091000000005E0642300220021002001F061F8BE
:1009200001F000FA002806D101F002FA03A9BFB2D3
:1009300078547F1CF4E7DFF8641903A801F0F0FB9A
:100940000400002CD9D0AAA1200001F0E9FB04008A
:10095000002CD2D074A1200001F0E2FB0500002D94
:10096000CBD0281B401E8DF80200002080460020BE
:1009700081469DF802001FFA89F980B2814510D2A4
:100980000A2000FB08F81FFA89F919EB04004078E7
:10099000303810EB08088498A0F8008019F101099C
:1009A000E7E703A8281A1FFA88F810EB4800801C14
:1009B000BFB2B842A1D2002082465046C0B280B237
:1009C0001FFA88F8404565D25FFA8AFA15EB4A00AB
:1009D0008078412816DB5FFA8AFA15EB4A008078A6
:1009E00041385FFA8AFA15EB4A0188705FFA8AFA91
:1009F00015EB4A0080780A305FFA8AFA15EB4A0153
:100A000088700AE05FFA8AFA15EB4A00807830387D
:100A10005FFA8AFA15EB4A0188705FFA8AFA15EBD9
:100A20004A00C078412816DB5FFA8AFA15EB4A00C3
:100A3000C07841385FFA8AFA15EB4A01C8705FFA4C
:100A40008AFA15EB4A00C0780A305FFA8AFA15EB89
:100A50004A01C8700AE05FFA8AFA15EB4A00C078CA
:100A600030385FFA8AFA15EB4A01C8705FFA8AFAE1
:100A700015EB4A0080785FFA8AFA15EB4A01C978CB
:100A800011EB001083995FFA8AFA0AF801001AF153
:100A9000010A92E701208DF8010000208DF8000086
:100AA0002BE79DF80100012801D1002005E0BFB22D
:100AB000002F01D1012000E002200DF5077DBDE8E7
:100AC000F08F2DE9F043A1B0040040275FF0CC087F
:100AD0000DF1400942463900484601F029FB01F07A
:100AE00041F9E4B22200DFF8741B00A801F070FBAA
:100AF0000600B6B2310000A801F0E9F840221E213C
:100B000010A8FFF77FFC0500EDB2002D04D0022DE8
:100B100004D005D2002004E0012002E0022000E021
:100B2000012021B0BDE8F0832C220000D0D20200C9
:100B30002DE9F04FA1B000200500002006005FF075
:100B400060095FF0CC0A0DF1200B52464946584629
:100B500001F0EEFA01F006F90721DFF8EC0C01F0E4
:100B6000B6F86022282108A8FFF74CFC0400E4B284
:100B7000012C33D100200700BFB2602F20DA08A873
:100B8000BFB2385C2C2804D008A8BFB2385C20283B
:100B90000DD1761CF6B2022E06D1EDB2290000A8C6
:100BA000FFF732FD8046FFE70020050006E008A8B9
:100BB000BFB2385C00A9EDB268546D1C7F1CDBE746
:100BC0001FFA88F8B8F1000F04D01FFA88F8B8F1BE
:100BD000630F01D1012007E0002005E0E4B2002C02
:100BE00001D1012000E0022021B0BDE8F08F00001B
:100BF0002C00000014D202002DE9F04FA1B000201B
:100C00000500002006005FF060095FF0CC0A0DF1DE
:100C1000200B52464946584601F08AFA01F0A2F8E4
:100C20000921DFF8800C01F052F86022642108A845
:100C3000FFF7E8FB0400E4B2012C31D100200700EB
:100C400008A801F0A9FABFB287421BD208A8BFB218
:100C5000385C2C280DD1761CF6B2012E06D108A8DE
:100C6000BFB23818407830388046FFE700200500D2
:100C700006E008A8BFB2385C00A9EDB268546D1C4C
:100C80007F1CDDE71FFA88F8B8F1010F04D01FFAC6
:100C900088F8B8F1050F01D100200BE0012009E030
:100CA000E4B2002C01D1012004E09DF800008DF891
:100CB0000000022021B0BDE8F08F00002DE9F04FC8
:100CC000A1B000200500002006005FF060095FF081
:100CD000CC0A0DF1200B52464946584601F028FA3D
:100CE00001F040F80A21DFF8C00B00F0F0FF6022AD
:100CF000282108A8FFF786FB0400E4B2012C2ED1BE
:100D000000200700BFB2602F1BDA08A8BFB2385C12
:100D10002C280DD1761CF6B2012E06D108A8BFB240
:100D20003818407830388046FFE70020050006E09C
:100D300008A8BFB2385C00A9EDB268546D1C7F1CD6
:100D4000E0E71FFA88F8B8F1010F04D01FFA88F81D
:100D5000B8F1050F01D100200BE0012009E0E4B259
:100D6000002C01D1012004E09DF800008DF8000066
:100D7000022021B0BDE8F08F2DE9F043C1B004009E
:100D8000E4B22200DFF8241B00A801F021FA0500DC
:100D900000F0E8FFADB2290000A800F098FF4FF482
:100DA00080775FF000080DF100094246390048469F
:100DB00001F0BEF94FF48072142100A8FFF722FB66
:100DC0000600F6B2012E01D1002005E0F6B2002E99
:100DD00001D1012000E0022041B0BDE8F083F0B570
:100DE00091B04025CC2600AF32002900380001F038
:100DF0009FF900F0B7FF0E21DFF8B40A00F067FF9B
:100E000040221E2100A8FFF7FDFA0400E4B2002CE6
:100E100004D0022C04D005D2002004E0012002E01E
:100E2000022000E0012011B0F0BD70B590B00400C8
:100E300000F024F8A4B22200DFF8781A00A801F02C
:100E4000C7F9060000F08EFFF6B2310000A800F0EE
:100E50003EFF40221E2100A8FFF7D4FA0500EDB2A4
:100E6000002D04D0022D04D005D2002004E0012082
:100E700002E0022000E0012010B070BD30B591B05A
:100E8000DFF8341A00A801F0A3F9050000F06AFFAA
:100E9000EDB2290000A800F01AFF40220F2100A89F
:100EA000FFF7B0FA040000F05DFFEDB2290000A8E2
:100EB00000F00DFF4022142100A8FFF7A3FA040060
:100EC000DFF8F41900A801F083F9050000F04AFFEB
:100ED000EDB2290000A800F0FAFE4022192100A876
:100EE000FFF790FA0400002011B030BDDCD2020000
:100EF0002DE9FF4104000D00160000F06EF80028F7
:100F000003D10A2000F03AFDF7E7002000F069F86D
:100F1000FFF7B4FF0020070001203070DFF89C09C4
:100F20000278290089B22000FFF72BFC00282AD183
:100F300000208DF80C0001208DF80D0000F0AFFDB1
:100F4000019001A807C8FFF775F80020804601202E
:100F500000F047F800AA4FF47A71DFF864090068DE
:100F600001F076F918F101085FFA88F8B8F12C0F52
:100F700002DB0020070009E09DF800000028E6D110
:100F80000120070002E0012000F02BF8FFB2012F42
:100F900002D10020307009E001F0BDFC00232822BE
:100FA0000221002000F01DFD01203070BDE8FF810E
:100FB000F8B504000D001600FFF720FA07003B000B
:100FC000DBB2320092B229002000FFF763FC002858
:100FD00001D1002000E00120F2BDDFF8E808007830
:100FE0007047DFF8E01808707047000070D1020009
:100FF00024D20200F0B5B1B00120060000200400A8
:1010000000208DF8180000200700F6B2002E7DD0D9
:10101000E4B2002C06D0022C2BD03BD3042C66D09B
:1010200044D370E005A800F073F80500EDB2002D80
:101030001ED19DF81400312803D09DF814003528E6
:1010400002D10020060013E09DF81400322806D1DA
:101050004FF47A7000F092FC0020040008E09DF844
:101060001400302802D10220040001E00020060014
:10107000CBE742F2107000F081FC06A800F08AF87D
:101080000500EDB2002D02D10120040001E0002096
:101090000600BAE700F004F90500EDB2002D02D118
:1010A0000320040001E000200600AEE79DF81800D0
:1010B000FFB2874218D206A8FFB2212101FB070028
:1010C000411C84B06846212200F018FC0FBC00F0DF
:1010D00009F905007F1CEDB2002D02D104200400A7
:1010E00093E70320040090E7002006008DE700F05E
:1010F00029F90500EDB2002D02D10020060001E023
:101100000320040081E7002006007EE731B0F0BD37
:101110002DE9F047C0B004003020207000F022FE1E
:101120000A21DFF8A40700F0D2FD4FF480785FF0C9
:1011300000090DF1000A4A464146504600F0F8FF0A
:101140004FF480721E2100A8FFF75CF90500EDB294
:10115000012D1AD10020070000200600F6B21E2E35
:101160000EDA00A8F6B2305C3A2807D100A8F6B231
:101170003018007920700120070001E0761CEDE7AF
:10118000FFB2012F01D1002000E0012040B0BDE8F6
:10119000F08700002DE9F04FC1B00400002020705E
:1011A000DFF8281701A801F013F8804600F0DAFDF7
:1011B0005FFA88F8414601A800F089FD4FF4807974
:1011C0005FF0000A0DF1040B52464946584600F004
:1011D000AFFF4FF480724FF4C87101A8FFF712F906
:1011E0008DF800009DF8000001284DD10020050079
:1011F000FF2D49D801A8285C3A2843D12E00FF2EA4
:101200003FD801A8305C282839D101A83018C0780F
:10121000222834D12078212101FB0040002180F8D0
:1012200021103700FF2F27D82078212101FB004013
:101230002178212202FB014191F82110081801A90F
:101240007918C97841702078212101FB004021786C
:10125000212202FB014191F82110491C80F8211044
:1012600001A83818C078222804D101A838180079BC
:101270002C2801D07F1CD5E72078401C2070761CDC
:10128000BDE701E06D1CB3E72078002801D0002005
:1012900000E0012041B0BDE8F08F0000E8D202007C
:1012A000F0B5C1B000F05EFD0B21DFF8240600F0C0
:1012B0000EFD4FF48075002600AF32002900380083
:1012C00000F036FF4FF480721E2100A8FFF79AF855
:1012D0000400E4B2012C01D1002000E0012041B063
:1012E000F0BD00000FB4F0B5C1B000F03BFD0C2123
:1012F000DFF8E00500F0EBFC9DF8381146A800F09F
:10130000E6FC0221D4A000F0E2FC4FF48075002638
:1013100000AF32002900380000F00AFF4FF480725D
:10132000642100A8FFF76EF80400E4B2012C01D19B
:10133000002000E0012041B0F0BC5DF814FB00008B
:1013400034D202002DE9F041C0B000F00BFD0A21BB
:10135000DFF8840500F0BBFC4FF4807600270DF128
:1013600000083A003100404600F0E2FE4FF480727F
:101370001E2100A8FFF746F80400E4B2012C0DD1AD
:1013800000200500EDB21E2D08DA00A8EDB2285CA1
:10139000222801D1002002E06D1CF3E7012040B0BB
:1013A000BDE8F0812DE9F041C0B0DFF8301500A8AC
:1013B00000F00EFF040000F0D5FCA4B2210000A84C
:1013C00000F085FC4FF4807600270DF100083A000C
:1013D0003100404600F0ACFE4FF48072142100A8AA
:1013E000FFF710F80500EDB2012D01D1002005E056
:1013F000EDB2002D01D1012000E0022040B0BDE897
:10140000F0812DE9F041C0B0DFF8D41400A800F05D
:10141000DFFE040000F0A6FCA4B2210000A800F04A
:1014200056FC4FF4807600270DF100083A00310099
:10143000404600F07DFE4FF48072142100A8FEF7B4
:10144000E1FF0500EDB2012D01D1002005E0EDB274
:10145000002D01D1012000E0022040B0BDE8F08164
:101460002DE9F041C0B0DFF87C1400A800F0B0FE18
:10147000040000F077FCA4B2210000A800F027FCD3
:101480004FF4807600270DF100083A003100404605
:1014900000F04EFE4FF48072142100A8FEF7B2FF58
:1014A0000500EDB2012D01D1002005E0EDB2002DC7
:1014B00001D1012000E0022040B0BDE8F0812DE91B
:1014C000F041C0B0DFF8201400A800F081FE040055
:1014D00000F048FCA4B2210000A800F0F8FB4FF493
:1014E000807600270DF100083A003100404600F0F8
:1014F0001FFE4FF48072142100A8FEF783FF050041
:10150000EDB2012D01D1002005E0EDB2002D01D199
:10151000012000E0022040B0BDE8F0812DE9F04359
:10152000A1B00400A4B22200DFF8C01300A800F0AC
:101530004FFE050000F016FCADB2290000A800F037
:10154000C6FB81275FF000080DF100094246390013
:10155000484600F0EDFD8122142100A8FEF752FF5D
:101560000600F6B2012E01D1002005E0F6B2002EF1
:1015700001D1012000E0022021B0BDE8F0832DE977
:10158000F04FC3B004000D00DFF8641321A800F091
:101590001FFE060000F0E6FBB6B2310021A800F005
:1015A00096FB5FF081095FF0000A0DF1840B524653
:1015B0004946584600F0BCFD8122322121A8FEF7A1
:1015C00021FF8DF800009DF8000001283AD100208D
:1015D00007000020804600200600B6B2812E2FD2E0
:1015E00021A8B6B2305C2C2804D021A8B6B2305C59
:1015F000002819D1FFB23800012802D0022807D0F4
:101600000EE04146C9B201A800F02AF8208007E0A8
:101610004146C9B201A800F023F82880002018E054
:101620007F1C0020804609E021A8B6B2305C01A9E9
:101630001FFA88F808F8010018F10108761CCCE7B9
:10164000002006E09DF80000002801D1012000E004
:10165000022043B0BDE8F08F0D0A000044D2020022
:1016600010B402000024200000242300DBB2C9B221
:101670008B4207D20A246043DBB29C5C303C2018CA
:101680005B1CF3E780B210BC70472DE9F34FADF55A
:10169000257D1400BDF89422964945A800F098FDD8
:1016A000050000F05FFBADB2290045A800F00FFB7C
:1016B0004FF4BD700490002003900DF58A7B039ACF
:1016C0000499584600F034FD4FF4BD721E2145A820
:1016D000FEF798FE8DF801009DF80100012840F00A
:1016E000A480002006000020070000208DF80000E4
:1016F00000200500ADB2B5F5BD7F80F08E8045A815
:10170000ADB2285C222840F07F80F6B2052E77D15A
:1017100000200190784945A8ADB2281800F000FDDE
:1017200001900198002869D045A8ADB22818C01CC6
:10173000029001980299401A20800020804620885B
:10174000082190FBF1F01FFA88F880454FDA45A890
:10175000ADB21FFA88F815EBC80108184079C0B27D
:1017600045A9ADB21FFA88F815EBC802511889795E
:1017700011EB00103038814645A8ADB21FFA88F849
:1017800015EBC8010818407AC0B245A9ADB21FFADE
:1017900088F815EBC8025118897A11EB001030381F
:1017A00082465FFA89F9B9F1410F04DB5FFA89F9E2
:1017B000B9F1370003E05FFA89F9B9F130005FFA57
:1017C0008AFABAF1410F04DB5FFA8AFABAF13701FB
:1017D00003E05FFA8AFABAF1300151EA0010A699E3
:1017E0001FFA88F808F8010018F10108A7E7A4F823
:1017F000008001208DF80000002021E001201FE082
:10180000761C0020070006E045A8ADB2285C05A9BB
:10181000BFB278547F1C6D1C6CE79DF80000012856
:1018200001D100200CE001200AE09DF80100002811
:1018300001D1012004E09DF814008DF8140002206D
:101840000DF5277DBDE8F08FB8D30200F8B5040090
:101850000D0000A90DF10200FFF791FE0600002027
:101860002880F6B2002E1CD1BDF80200002818D046
:1018700001200700BFB2BDF80000401C874210DA0B
:101880002A002100380080B2FFF7FFFE0600F6B202
:10189000002E04D1380080B2FFF740FE01E07F1C2B
:1018A000E8E7F1BD00D302000CD30200C0D3020070
:1018B00054D2020064D2020018D302000870012042
:1018C000AC6F0120CE0B002024D3020030D30200E5
:1018D0003CD3020074D2020048D3020084D202003A
:1018E00054D3020090D1020094D20200A4D202008C
:1018F00060D30200B4D20200F4D2020062B38B07BC
:1019000008D0521E11F8013B00F8013B00F0248082
:101910008B07F6D1830740F0208000BF103A07D331
:1019200030B4B1E83810103AA0E83810F9D230BC21
:10193000530724BFB1E80810A0E8081044BF51F8CD
:10194000043B40F8043BD20724BF31F8022B20F8B7
:10195000022B44BF0B7803707047083A07D3B1E8F5
:101960000810083A40F8043B40F804CBF7D253077C
:10197000E4E70268531C03601170704738B5040037
:10198000A4B2002C2CD001F01BF805004A484B49AA
:10199000096891F82110085C4849096891F82210FB
:1019A00088434549454A126892F8212050544248DC
:1019B0004249096891F82110085C002808D1404884
:1019C00000783E49096891F8231088433C49087023
:1019D0003A4800688483280000F0F6FF01F0E5FA39
:1019E00031BD2DE9F84304000D0016001F00E4B2DC
:1019F000002C08D1EDB2002D05D1F6B2002E02D197
:101A0000BFB2002F48D0EDB23C2D01DB512044E0A5
:101A1000F6B23C2E01DB52203FE0BFB2B7F57A7F31
:101A200001DB532039E0E4B24FF46160EDB23C21B8
:101A300001FB05F100FB0410F6B230184FF47A7187
:101A4000BFB24FF47A7202FB07F24FF47A73B2FB23
:101A5000F3F201FB002080465FEA184081465FF404
:101A600080314046B0FBF1F808FB1108404680B2D7
:101A7000FFF784FF1FFA89F9B9F1000F0AD04FF47C
:101A80000040FFF77BFF4FF40040FFF777FFB9F10D
:101A90000109EFE7002000E05420BDE8F28338B5EB
:101AA00000F08EFF0400074800680500200000F0E9
:101AB0008BFF280032BD0000D46F0120DC6F0120B5
:101AC00012700120F46F012089B2074AC0B22423AA
:101AD00003FB00221161704789B2034AC0B224237C
:101AE00003FB0022516170470060004038B50400DC
:101AF0000D00290089B22000C0B2FFF7E5FF31BD1B
:101B000038B504000D00290089B22000C0B2FFF7EB
:101B1000E3FF31BD80B50020009000230422102196
:101B2000022001F085FB00200090002304221021F8
:101B3000012001F07DFB00F009F800F00DF801BD77
:101B400080B510210120FFF7D1FF01BD80B5102124
:101B50000120FFF7D5FF01BD80B510210220FFF75E
:101B6000CFFF01BD80B5FFF7F7FF01BD10B584B011
:101B70000400DFF87C0501F01BFCDFF8780501F0BC
:101B800017FC012001F0F6FC05220021012001F0E4
:101B90001FFD0520029001940020009000230522E3
:101BA0004FF48051012001F090FE012001F0EBFF85
:101BB0000FF2A5020421012001F0B8FF0421012049
:101BC00002F04BF81FBD70B504000D004FF400711A
:101BD000DFF81C0501F03DFCD0F50070ADB2A84265
:101BE00001D2012010E000200600B6B2ADB2AE4234
:101BF00009D24FF40072B6B23119DFF8F40401F0E3
:101C0000DEFB761CF1E7002070BD80B5DFF8E00454
:101C100001F017FC00280CD14FF4007200A9DFF886
:101C2000D00401F0EDFB012200A9012001F0F4FE37
:101C3000ECE701BD80B5DFF8BC0401F002FC02BD99
:101C400080B54FF4007200A9DFF8A80401F0D8FBBA
:101C50009DF8000002BD000080B5012200A901200E
:101C600001F01FFF4FF4007200A9DFF8880401F0B3
:101C7000A6FB01BD10B584B00400DFF87C0401F0C0
:101C800097FBDFF8780401F093FB022001F072FC6F
:101C900005220021022001F09BFC05200290019406
:101CA00000200090002305224FF48051022001F013
:101CB0000CFE022001F067FF0FF28D0204210220CA
:101CC00001F034FF0421022001F0C7FF1FBD38B529
:101CD00004000D002A002100022001F09DFE31BD0C
:101CE00070B504000D004FF40071DFF80C0401F032
:101CF000B0FBD0F50070ADB2A84201D2012010E0D7
:101D000000200600B6B2ADB2AE4209D24FF4007266
:101D1000B6B23119DFF8E00301F051FB761CF1E7B0
:101D2000002070BD80B5DFF8D40301F08AFB02BD4E
:101D300080B54FF4007200A9DFF8C00301F060FB2A
:101D40009DF8000002BD000080B5012200A902201C
:101D500001F0A7FE4FF4007200A9DFF8A00301F024
:101D60002EFB01BD10B5FFF7DDFF002803D1FFF703
:101D7000DFFF0400F7E710BD10B584B00400DFF802
:101D8000800301F015FBDFF87C0301F011FB032059
:101D900001F0F0FB05220221032001F019FC0520CF
:101DA0000290019400200090002305224FF48051FE
:101DB000032001F08AFD032001F0E5FE0FF2B902D5
:101DC0000421032001F0B2FE0421032001F045FFAD
:101DD0001FBD70B504000D004FF40071DFF8200343
:101DE00001F037FBD0F50070ADB2A84201D201205E
:101DF00010E000200600B6B2ADB2AE4209D24FF4F8
:101E00000072B6B23119DFF8F80201F0D8FA761C88
:101E1000F1E7002070BD80B5DFF8E40201F011FBAE
:101E200000280CD14FF4007200A9DFF8D40201F0B1
:101E3000E7FA012200A9032001F0EEFDECE701BD65
:101E400080B5DFF8C00201F0FCFA02BD80B54FF4A6
:101E5000007200A9DFF8AC0201F0D2FA9DF8000090
:101E600002BD10B5FFF7ECFF002803D1FFF7EEFF2E
:101E70000400F7E710BD000080B5012200A903208F
:101E800001F00FFE4FF4007200A99E4801F097FA8E
:101E900001BD10B584B004009B4801F089FA9B484D
:101EA00001F086FA042001F065FB052203210420DD
:101EB00001F08EFB05200290019400200090002389
:101EC00005224FF48051042001F0FFFC042001F0B2
:101ED0005AFE0FF26D020421042001F027FE0421B6
:101EE000042001F0BAFE1FBD38B504000D002A0021
:101EF0002100042001F090FD31BD80B5824801F041
:101F0000A0FA00280BD14FF4007200A97E4801F01E
:101F100077FA012200A9042001F07EFDEEE701BD61
:101F200080B57A4801F08DFA02BD80B54FF4007299
:101F300000A9764801F064FA9DF8000002BD000097
:101F400080B5012200A9042001F0ABFD4FF400721E
:101F500000A96E4801F033FA01BD10B5FFF7E0FFAC
:101F6000002803D1FFF7E1FF0400F7E710BD10B52B
:101F700084B00400664801F01BFA664801F018FAC4
:101F8000052001F0F7FA05220021052001F020FBD1
:101F900005200290019400200090002305224FF4B8
:101FA0008051052001F091FC052001F0ECFD0FF2BD
:101FB0006D020421052001F0B9FD0421052001F086
:101FC0004CFE1FBD38B504000D002A00210005207D
:101FD00001F022FD31BD80B54D4801F032FA0028F4
:101FE0000BD14FF4007200A9494801F009FA01220F
:101FF00000A9052001F010FDEEE701BD80B54548C0
:1020000001F01FFA02BD80B54FF4007200A94148EB
:1020100001F0F6F99DF8000002BD000080B5012234
:1020200000A9052001F03DFD4FF4007200A93948D8
:1020300001F0C5F901BD10B584B00400364801F0C7
:10204000B7F9364801F0B4F9062001F093FA0522F9
:102050000021062001F0BCFA052002900194002026
:102060000090002305224FF48051062001F02DFC42
:10207000062001F088FD0FF25D020421062001F028
:1020800055FD0421062001F0E8FD1FBD80B5224862
:1020900001F0D7F900280BD14FF4007200A91E48B7
:1020A00001F0AEF9012200A9062001F0B5FCEEE72F
:1020B00001BD80B5194801F0C4F902BD80B54FF4E7
:1020C000007200A9154801F09BF99DF8000002BDBF
:1020D0000000000080B5012200A9062001F0E1FC0B
:1020E0004FF4007200A90D4801F069F901BD00002C
:1020F0006C4501207847012084490120904B012044
:102100009C4D0120A84F0120B4510120C053012053
:10211000CC550120D8570120E4590120F05B012063
:1021200038B504000D002900200001F0EBFF32BD9E
:1021300062F30F2262F31F42401810F0030308D02D
:10214000C91A1FD3DB0748BF00F8012D28BF20F8AC
:10215000022D130030B414461546103928BF20E96B
:102160003C00FAD8490728BF20E90C0048BF40F8D6
:10217000042D890028BF20F8022D48BF00F8012D4A
:1021800030BC7047C91818BF00F8012DCB0728BF15
:1021900000F8012D7047000000F10103810704D011
:1021A00010F8011B89B18107FAD10268B2F101313F
:1021B000914311F0803F04BF50F8042FF6E710F868
:1021C000011B11B110F8011BFBE7C01A704700009A
:1021D0000CB41CB5044604A801900A46009401AB57
:1021E00000A907487844183001F0AEFF009A00219A
:1021F000117000285CBF0098001B16BC5DF80CFB3A
:1022000073F7FFFF70B504003E480078002801D046
:1022100000201CE000F0D4FB05003B4800680600ED
:1022200039480068002804D03748006840683649BB
:102230000860280000F0C8FB002E07D00120307095
:10224000002070807460300000F018FE300070BD17
:102250002DE9F04104000D0016002A4800780028FE
:1022600003D002203070002049E000F0A9FB0700F5
:1022700060688046B8F1000F08D000206060380028
:1022800000F0A2FB00203070404638E01F48006894
:10229000807F50F002001D49096888771B4800685C
:1022A0008583200000F06DFD380000F08DFB00F00C
:1022B0007CFE00F085FB070014480068006980463A
:1022C000B8F1000F12D00020104909680861002001
:1022D0000E490968887700200C490968C8603800F1
:1022E00000F072FB00203070404608E0200000F053
:1022F00095FD380000F068FB0A2030700020BDE832
:10230000F08100000D700120C46F0120DC6F0120FE
:1023100070B504000D0000F053FB06006078002843
:102320000BD002222900200000F0B9FC300000F0A0
:102330004BFB00F03AFE00200CE06068002804D05F
:10234000300000F041FB142004E06560300000F034
:102350003BFB002070BD000062B67047704780B53F
:1023600001F094FFFFF7F8FF00F086FB0423DFF88D
:10237000D02500210FF20D0001F09EFF00F0ECFBD4
:1023800001BD000010B5040002F0FDF84FF47A71B1
:10239000B0FBF1F002F006F900F013FC00F050F889
:1023A00002F014F90022DFF89C154FF4304002F0DF
:1023B0002EF90022DFF890154AF2020002F027F908
:1023C0000022DFF888154AF2030002F020F900220B
:1023D000DFF87C154AF2010002F019F90022DFF85B
:1023E00074154AF2040002F012F90022DFF85815C1
:1023F0004FF4204002F00BF90022DFF85C154AF29E
:10240000050002F004F902F08CFA002002F0D6FF79
:10241000082003F03BF8082003F04BF803F06AF8BB
:102420004FF47A70FFF7AAFA03F06EF802F001FC9D
:1024300002F02CFC02F05BFC082003F048F8EFE708
:1024400080B50523DFF8142500210FF2D50001F037
:1024500033FF0623DFF8082500210FF2091001F0F1
:102460002BFF0723DFF8FC2400210FF2112001F0DD
:1024700023FF0823DFF8F02400210FF2892001F068
:102480001BFF0923DFF8E42400210FF2253001F0BF
:1024900013FF0A23DFF8D82400210FF2953001F052
:1024A0000BFF0B23DFF8CC2400210FF2ED3001F0FD
:1024B00003FF0C23DFF8C02400210FF2054001F0D8
:1024C000FBFE1623DFF8B42400210FF2194001F0BF
:1024D000F3FE1823DFF8A82400210FF2294001F0B1
:1024E000EBFE0020FFF78EFEDFF898140860002056
:1024F000FFF788FEDFF8901408600020FFF782FEE7
:10250000DFF8881408600020FFF77CFEDFF88014F5
:1025100008600020FFF776FEDFF87814086001BD40
:1025200010B5C2B0040003F07BF801A803F012FD5F
:10253000FFF780FB002810D1FFF782FB8DF8000029
:10254000DFF85404006844F620618842F0D201228A
:1025500000A901A803F004FDEAE71420FFF70EFA32
:10256000E6E7000030B5ADF5437D04000020FEF73E
:1025700038FD0020FDF718FF5FF4E130FFF77AFB2C
:1025800043A802F0F0F8DFF8140402F074F8DFF862
:102590000C0401784AF2010002F098F8DFF8FC031D
:1025A00001784AF2050002F091F8FDF701FF0020E2
:1025B000FDF74AFDFEF783FF0120FEF712FDFEF74F
:1025C0000CFD002803D10A20FFF7D8F9F7E7002017
:1025D000FEF707FD01200500FEF750FCEDB2002DCF
:1025E00029D04FF4807202A903A8FEF7E1FC00286D
:1025F00018D10120FDF7D8FEBDF80800FF2801D84A
:1026000000200500DFF898030190DFF890030078C0
:1026100000904FF48073BDF8082003A943A802F08E
:10262000A8F8DBE70020FDF7BFFE0B20FDF70CFD4F
:1026300000200500D2E702A903A8FFF707F9DFF899
:1026400060030190DFF85403007800904FF480732A
:10265000BDF8082003A943A802F08BF84FF4FA60F4
:10266000FEF7E3FB4FF47A70FFF788F90120FEF7DD
:10267000B8FC47F23050FFF781F9A0E73EB50400FF
:1026800003F048FDC74802F06EF802A801F0F3FF1E
:102690009DF808104AF2020002F018F89DF80810A0
:1026A0004FF4204002F012F89DF808104AF203009F
:1026B00002F00CF800200500FFF7C2FB002813D140
:1026C000FFF7C4FB8DF80900B74801909DF808009A
:1026D00000904FF4807301220DF10901B14802F01E
:1026E00048F800200500E7E76420FFF747F96D1C74
:1026F000ADB2152DE0DB00200500AA4802F033F84A
:10270000DAE7000030B5ADF5057D04004FF4165052
:10271000FFF7BFFB03F030FE44A802F024F80DF1F0
:10272000090001F0A8FF9DF809104AF2010001F02C
:10273000CDFF03A804F042F900208DF80C00002022
:10274000ADF80D0000200500FFF7EAFB00280BD1D3
:10275000FFF7EBFB8DF80800012202A903A803F0A4
:10276000B1FE00200500EFE703F0A8FF002810D11C
:1027700003F0A9FF8DF808008C4801909DF809002E
:1027800000904FF48073012202A944A801F0F1FFE8
:10279000EAE71420FFF7F2F86D1CB5F5FA7FD3D9FC
:1027A00044A801F0E0FF03A804F008F9CCE700001A
:1027B00010B5ADF5826D04004FF41650FFF7D7FB4E
:1027C00084A801F0D0FF0DF1090001F054FF9DF83D
:1027D00009104AF2010001F079FF03A804F014FC8B
:1027E000FFF70CFC002809D1FFF70DFC8DF808005D
:1027F000012202A903A804F00DFCF1E704F03FFC5C
:10280000002810D104F040FC8DF8080068480190C1
:102810009DF8090000904FF48073012202A984A85A
:1028200001F0A7FFEAE71420FFF7A8F8D8E70000B7
:1028300010B5CCB004005FF4E130FFF7FCFB03A857
:1028400001F091FF02A801F016FF9DF808104FF467
:10285000304001F03BFF9DF808104AF2040001F0FF
:1028600035FFFFF726FC002811D1FFF727FC8DF874
:102870000900504801909DF8080000904FF49073B3
:1028800001220DF1090103A801F073FFE9E714200B
:10289000FFF774F8E5E7000010B504004FF4FA60A4
:1028A000FFF76CF844480068401C43490860424800
:1028B000006802F090FA4FF47A70FFF75FF8F1E7E2
:1028C00038B5040002F0C5FC4FF4FA60FFF756F883
:1028D0006D1C280002F09DFA4FF47A70FFF74EF855
:1028E000F6E7000010B50400FFF78FF9FFF793FA41
:1028F000FFF703FBFFF76FFBFFF7C8FB0520FFF7B0
:102900003DF8F1E710B504000A2300220021002061
:10291000FFF767F8F8E780B5062001F028FD1F48AB
:10292000007801F0C4FE0020FEF75BFB0020FDF7FD
:102930003BFD06230A4A0021204801F0BDFC01BDF1
:10294000A4FC00200DB8020099BE0200A1CA02003A
:102950001986020085C4020031CF0200A4040120C0
:10296000A4E40020A40C0120A4140120A41C012034
:10297000A4240120A42C0120A4340120A43C012083
:10298000A4F40020A46F0120A86F0120AC6F0120E7
:10299000B06F0120B46F0120000001000A70012017
:1029A000B152020028670120D31D020041690200D4
:1029B000096C0200BD200200187401206525020088
:1029C000EFF3108072B6704780F3108870471F488D
:1029D000FF210170002080F309881D48012101704A
:1029E0001C481D49016062B6FEE71A481A49016099
:1029F0007047184818490160704772B6EFF30980B4
:102A000028B1203880E8F00F14490968086000B543
:102A1000134880475DF804EB124813490A780270A6
:102A20000E4812490A680260106890E8F00F2030E2
:102A300080F309884EF0040E62B670474FF0010033
:102A400080F313880A480B490160FEE722ED00E09D
:102A50001370012004ED00E000000010DC6F012085
:102A6000CD7102001070012011700120E46F01206F
:102A70000CED00E00400FA0580B504F051FB00F015
:102A80002BFA00F03FFA00F06BFA00F009FA04F0BC
:102A9000ABFB04F0E1FB04F00BFC00F04FFA00F09C
:102AA00056FA04F03EFB01BD10B5DFF8F4060078DD
:102AB000012850D1FFF784FF0400DFF8E806007812
:102AC000002806D0DFF8DC060078401EDFF8D416B8
:102AD0000870DFF8D0060078002839D1DFF8C80682
:102AE0000078002834D1DFF8C406DFF8C41609786E
:102AF000085CDFF8C0160870DFF8B8060078DFF869
:102B0000AC16DFF8B426DFF8AC361B789A5C515C63
:102B100011EBC000DFF8A4160870DFF8A0060078FB
:102B2000DFF89C160978884212D0DFF89806DFF8A3
:102B30008C16097850F82100DFF88C160860DFF851
:102B40008C060068401CDFF884160860FFF751FF10
:102B50002000FFF739FF10BD38B5DFF844060078D4
:102B600000282DD1DFF84406DFF844160978085C08
:102B70000400DFF83806DFF84016E4B2615C085C58
:102B80000500E4B2EDB215EBC400DFF830160870B2
:102B9000DFF828060078DFF828160870DFF824062A
:102BA000DFF81816097850F82100DFF81C160860C5
:102BB000DFF814060068DFF818160860FFF707FF53
:102BC00031BD10B50220FEF7D9FEFFF7F9FE040073
:102BD0000020DFF8001608602000FFF7F5FE4FF434
:102BE0007A70FEF7CBFEFFF7EBFE0400DFF8E4059A
:102BF0000068DFF8E41508600120DFF8E0150870D0
:102C00002000FFF7E1FE10BD38B504F0E9FAFFF748
:102C1000D7FE0400DFF8C8050068401CDFF8C015C7
:102C200008602000FFF7D0FEDFF874050078012867
:102C300033D1DFF8B00500680500E87F1E282CD0EE
:102C4000FFF7BEFE0400A88B002821D0A88B401EF1
:102C5000A883A88B00281BD1A87F000716D4DFF813
:102C60005005007895F823100843DFF844150870E4
:102C7000DFF8440595F82110085C95F82210084308
:102C8000DFF8341595F82120505401E00120A88385
:102C90006D682000FFF798FECFE731BD70472DE942
:102CA000F0410300DFF804E593F8018018F80EE026
:102CB0007646DFF834E5F6B216F80EE0F446DFF8B3
:102CC000ECE4F6B216EB030898F8088018F80EE06A
:102CD0007546DFF814E5EDB215F80EE07746F6B26A
:102CE000EDB215EBC60E7046F6B216EB030E9EF86B
:102CF00008E03EEA070EF6B216EB030888F808E093
:102D0000F6B216EB030E9EF808E0BEF1000F05D1F7
:102D100093F801E03EEA0C0E83F801E0DFF8A4E44A
:102D2000C0B25EF820E074465FF0000EA4F81CE02C
:102D30005FF0000EC4F80CE0216194F81EE03EEA5A
:102D4000020E84F81EE094F81EE0BEF1000F15D1CB
:102D5000DFF85CE49EF800E05CEA0E0EDFF85084D9
:102D600088F800E0DFF850E4F6B216F80EE057EA13
:102D70000E0EDFF84484F6B206F808E0C0B2BDE8F3
:102D8000F081DFF84C140968C860DFF82C14DFF814
:102D90004024126892F82120515CDFF83424126834
:102DA00092F822209143DFF81024DFF824341B68C6
:102DB00093F821309954DFF80014DFF814241268D6
:102DC00092F82120515C00290BD1DFF8E413097837
:102DD000DFF8FC23126892F823209143DFF8D02318
:102DE0001170DFF8EC13096891F821100918097ABD
:102DF000DFF8DC23126892F822201143DFF8D02399
:102E0000126892F82120121811724178DFF8C0235D
:102E1000126892F82320114341707047DFF8B01315
:102E2000096891F821100918097ADFF8A4231268BB
:102E300092F822209143DFF89823126892F821201B
:102E400012181172DFF88813096891F82110091817
:102E5000097A002907D14178DFF87423126892F8C3
:102E60002320914341700021DFF864231268917799
:102E70000021DFF85C231268D160704700224270A5
:102E800010F10802110000220A70491C00220A7089
:102E9000491C00220A70491C00220A70491C704714
:102EA00010B4DFF848331900DFF844331A00002368
:102EB000180080B2132806D200230B704A600C3130
:102EC0000C32401CF5E700230B7000234B60C74B0E
:102ED000C84C236010BC70470020C1490860002026
:102EE000B04908700020B04908700020C24908703D
:102EF0000020AB4908700020B44908600020B549A3
:102F0000086070470022AA4B1A70AB4A10000022DA
:102F1000110089B2042904D200220270401C491C0D
:102F2000F7E70022A64B1A700022A44B1A70002269
:102F3000A54B1A600022A64B1A60704780B51E236D
:102F4000AE4A00210FF2C90001F0B6F901BD80B50B
:102F50001D23AB4A00210FF2D90001F0ADF901BDEC
:102F600010B400239F4C236000231800C0B21F2818
:102F700006D20023934CC0B244F82030401CF5E741
:102F8000A04B1900A04B1A0000231800C0B2102853
:102F900004D24A6028312832401CF7E700234B60F6
:102FA000984B9A4C236010BC704738B5FFF708FD6A
:102FB00004007C480078002826D17B48007800284F
:102FC00022D17A487A490978085C0500EDB2774841
:102FD0007949EDB2695C085C10EBC500774908706F
:102FE000764800787649097888420DD0754873494B
:102FF000097850F821007449086074480068401C42
:1030000072490860FFF7F1FC2000FFF7DDFC31BDDD
:1030100038B50400FFF7D4FC05006E480068401C7A
:103020006C4908602800FFF7CFFC04F087F8F1E74F
:103030002DE9F041804669480078002804D14FF41A
:10304000FA60FEF79BFCF6E7634800686421B0FB7A
:10305000F1F00600FFF7B4FC04005E4800686C491C
:1030600008605C480068050000205A49086020009C
:10307000FFF7AAFC002E0ED0B5FBF6F0D0F16400ED
:1030800007007FB2002F02D4624807700CE00020D6
:103090006049087008E000205E4908704E480068EA
:1030A0006421B0FBF1F0060004F04CF84FF47A70A4
:1030B000FEF764FCCEE72DE9F84F05000E009246BE
:1030C0009B46DDF82890DDF82C800C9CFFF778FCFF
:1030D00000904E4800680700002F5AD078684B498E
:1030E00008600098FFF770FC3E60FD770020B8771D
:1030F0000020B883002087F82400EDB2E80887F8A4
:103100002100394897F82110085C87F8230015F052
:10311000070087F82000344897F82010085C87F8EB
:1031200022000020F860002078610020386138001B
:1031300004F050F8380003F0F5FFFFF741FC009071
:103140002048EDB240F825702648006878600020DD
:10315000B86024480068002802D0224800688760D0
:10316000204807601248007897F823100843104958
:103170000870114897F82110085C97F8221008434E
:103180000D4997F8212050540098FFF71DFC0020AE
:1031900003E00098FFF718FC4620BDE8F28F00001E
:1031A000137001200D7001200F70012030CE02003D
:1031B000127001200E700120D46F012011700120C7
:1031C00010700120946C0120E46F0120C06F012079
:1031D000DC6F0120D86F0120CC6F01200C70012022
:1031E000F46F0120E86F0120C8D302001C6B01209E
:1031F000286B0120C46F012014700120F8610120A8
:10320000F85F0120B4400120DC400120E06F012084
:10321000D06F01200B7001205F48006870475F4944
:103220000860704780B504F065F800F02FF801BD24
:10323000F8B504000D0016001F003200D2B22900BC
:1032400089B22000C0B204F05BF83900C9B2200096
:10325000C0B204F095F8F1BD30B489B2FF2905DCA5
:103260004F4C0D00EDB22C5D230006E04C4C89B2B2
:103270000D12EDB22C5D08342300DBB2102B03D20B
:10328000484CDBB244F8232030BC704710B5002016
:103290000400102C09D2444A012010FA04F189B22A
:1032A0000020FFF7D9FF641CF3E70FF21D011B207C
:1032B00004F0AFF80FF27901112004F0AAF8002011
:1032C0003A49086010BD000070B5FFF7A5FF060081
:1032D0003000FFF7A4FF4AF6AA20064033480068F2
:1032E00006403000C0B200280DD02D483100C9B2D0
:1032F000085C05002B4850F825000400A047012079
:10330000A8408643EDE7300AC0B200280ED024481A
:10331000310AC9B2085C08300500224850F825007F
:103320000400A0470120A8408643ECE770BD0000E0
:1033300070B5FFF771FF06003000FFF770FF45F230
:10334000555006401948006806403000C0B20028B9
:103350000DD013483100C9B2085C0500114850F87F
:1033600025000400A0470120A8408643EDE7300A6D
:10337000C0B200280ED00A48310AC9B2085C083031
:103380000500084850F825000400A0470120A84087
:103390008643ECE770BD0000146100401C610040F2
:1033A00030CD0200A06E0120397402009C6F012014
:1033B000002101600021416002218160704730B42A
:1033C00003009868012801D1012017E013F10C00D7
:1033D0005D6828180400087820705868401CB0FB0D
:1033E000F2F502FB1500586058681D68A84202D12A
:1033F0000120986001E003209860002030BC7047F5
:1034000030B403009868022801D1022017E013F1BC
:103410000C001D6828180400207808701868401CEB
:10342000B0FBF2F502FB1500186058681D68A84251
:1034300002D10220986001E003209860002030BC97
:10344000704701008868022801D1012000E00020B7
:10345000704710B4020053681468A34205D2536841
:10346000CB1814681B1B18000FE053681468A342A4
:1034700007D19368012B01D1080006E00023180052
:1034800003E0536814681B1B180010BC7047000051
:103490000100CA6852F48062CA6070470100CA68BD
:1034A00052F40062CA60704701000800006CC0045A
:1034B000C00C70470200936C0B439364704702008A
:1034C000D36C0B43D36470470200536D33F4E06355
:1034D0005365536D09B20B43536570470100CA68C9
:1034E00052F48062CA6070470100CA6852F40062F8
:1034F000CA60704701000800006CC004C00C70472F
:103500000200936C0B43936470470200D36C0B432F
:10351000D36470470200536D33F4E0635365536D19
:1035200009B20B435365704701004A6852F04002EC
:103530004A60704701004A6852F080024A60704752
:1035400001000800C06A4005400D70470200536B3F
:103550000B43536370470200936B0B4393637047B5
:103560000200536D33F440735365536D09B20B433E
:103570005365704710B50400DFF81C0AE4B250210F
:1035800001FB04000079002803D0022815D00AD3DB
:103590001DE0DFF8040AE4B2502101FB04000068DA
:1035A00003F0DAFF13E0DFF8F009E4B2502101FB89
:1035B0000400006804F010F909E0DFF8DC09E4B267
:1035C000502101FB0400006804F037FAFFE710BD4A
:1035D000F8B504000D001600DFF8BC09E4B2502174
:1035E00001FB04000079002803D002282DD016D357
:1035F00041E0DFF8A409E4B2502101FB0400EDB280
:103600000C2101FB0500016909B2DFF88C09E4B265
:10361000502202FB04000068FFF756FF2BE0DFF8A2
:103620007809E4B2502101FB0400EDB20C2101FB4A
:103630000500016909B2DFF86009E4B2502202FB1B
:1036400004000068FFF766FF15E0DFF84C09E4B2FC
:10365000502101FB0400EDB20C2101FB05000169C2
:1036600009B2DFF83409E4B2502202FB040000681A
:10367000FFF776FFFFE7F6B23000012805D00428F7
:103680004BD0052800F091801EE10020009000231F
:103690000422DFF80409E4B2502101FB0400EDB27A
:1036A0000C2101FB05004189DFF8EC08E4B250274A
:1036B00007FB0400EDB20C2707FB0500007AFFF7BB
:1036C000B7FDDFF8D408E4B2502101FB0400007913
:1036D000002803D0022815D00AD31DE0DFF8B8086F
:1036E000E4B2502101FB04000068FFF7D1FE13E0B3
:1036F000DFF8A408E4B2502101FB04000068FFF7E2
:10370000EDFE09E0DFF89008E4B2502101FB04006F
:103710000068FFF709FFFFE7D6E0002000900023D4
:103720000122DFF87408E4B2502101FB0400EDB27D
:103730000C2101FB05008189DFF85C08E4B2502709
:1037400007FB0400EDB20C2707FB0500407AFFF7EA
:103750006FFDDFF84408E4B2502101FB040000795A
:10376000002803D0022815D00AD31DE0DFF828086E
:10377000E4B2502101FB04000068FFF78FFE13E064
:10378000DFF81408E4B2502101FB04000068FFF7E1
:10379000ABFE09E0DFF80008E4B2502101FB0400B1
:1037A0000068FFF7C7FEFFE78EE0002000900023CF
:1037B0000422DFF8E407E4B2502101FB0400EDB27B
:1037C0000C2101FB05004189DFF8CC07E4B250274A
:1037D00007FB0400EDB20C2707FB0500007AFFF79A
:1037E00027FD0020009000230122DFF8AC07E4B29F
:1037F000502101FB0400EDB20C2101FB0500818981
:10380000DFF89407E4B2502707FB0400EDB20C2761
:1038100007FB0500407AFFF70BFDDFF87C07E4B2F9
:10382000502101FB04000079002803D0022815D0A4
:103830000AD31DE0DFF86007E4B2502101FB040069
:103840000068FFF725FE13E0DFF84C07E4B25021D3
:1038500001FB04000068FFF741FE09E0DFF83807CC
:10386000E4B2502101FB04000068FFF75DFEFFE7B2
:10387000DFF82407E4B2502101FB0400007900289E
:1038800003D0022815D00AD31DE0DFF80C07E4B2FC
:10389000502101FB04000068FFF700FE13E0DFF891
:1038A000F806E4B2502101FB04000068FFF71CFE9B
:1038B00009E0DFF8E406E4B2502101FB04000068EF
:1038C000FFF738FEFFE7FFE7F1BD2DE9F8430500FC
:1038D0000E0017009846DDF824900A9CDFF81008C7
:1038E000EDB2502101FB05000079002803D0022829
:1038F00061D030D38EE033001BB2424612B23900A1
:10390000C9B2DFF8EC07EDB25FF0500C0CFB05001C
:10391000006803F0A7FE00224946DFF8D407EDB2A5
:10392000502303FB0500006803F038FE2100C9B2F4
:10393000DFF8BC07EDB2502202FB0500006803F07F
:10394000AAFEDFF8AC07EDB2502101FB05000068CC
:1039500003F05BFE5EE033001BB2424612B2390058
:10396000C9B2DFF88C07EDB25FF0500C0CFB05001C
:10397000006803F0AFFF00224946DFF87407EDB29C
:10398000502303FB0500006803F040FF2100C9B28B
:10399000DFF85C07EDB2502202FB0500006803F07F
:1039A000B2FFDFF84C07EDB2502101FB05000068C3
:1039B00003F063FF2EE03300DBB24246D2B239009F
:1039C000C9B2DFF82C07EDB25FF0500C0CFB05001C
:1039D000006804F08FF84946DFF81407EDB2502272
:1039E00002FB0500006804F03BF82100C9B2DFF8D3
:1039F0000007EDB2502202FB0500006804F08FF8CA
:103A0000DFF8EC06EDB2502101FB0500006804F080
:103A100046F8FFE7BDE8F183F8B504000D00160095
:103A2000DFF8CC06E4B2502101FB04000079002845
:103A300003D0022823D011D332E000200700B74280
:103A40000BD2795DDFF8A806E4B2502202FB040035
:103A5000006803F03FFE7F1CF1E721E00020070033
:103A6000B7420BD2795DDFF88806E4B2502202FB40
:103A70000400006803F066FF7F1CF1E710E00020FF
:103A80000700B7420BD2795DDFF86406E4B250223A
:103A900002FB0400006804F061F87F1CF1E7FFE717
:103AA000F1BDF8B504000D001600DFF84406E4B2DD
:103AB000502101FB04000079002803D0022823D004
:103AC00011D332E000200700B7420BD2DFF8200606
:103AD000E4B2502101FB0400006803F0EFFD7855CB
:103AE0007F1CF1E721E000200700B7420BD2DFF88E
:103AF0000006E4B2502101FB0400006803F016FF49
:103B000078557F1CF1E710E000200700B7420BD288
:103B1000DFF8DC05E4B2502101FB0400006804F08A
:103B200011F878557F1CF1E7FFE7F1BD30B40300D1
:103B30000F20014201D1022023E0DFF8B805C9B20D
:103B4000085C0400DFF8B005DBB230F81300C0B247
:103B5000084201D0012014E0DFF8A005DBB210EB31
:103B60000310E4B240F82420DFF88C05DBB230F813
:103B70001300C9B20843DFF88055DBB225F8130003
:103B8000002030BC704738B5040000200500EDB2BD
:103B9000042D0BD2DFF86825012010FA05F1C9B217
:103BA0002000C0B2FFF7C2FF6D1CF0E7E4B2002CAA
:103BB00009D0022C1DD011D3042C30D024D3062CD4
:103BC0003ED037D342E00FF20521132003F021FC51
:103BD0000FF23921142003F01CFC37E00FF26D21A5
:103BE0001F2003F016FC0FF2A521202003F011FC8A
:103BF0002CE00FF2D921222003F00BFC0FF211313F
:103C0000232003F006FC21E00FF24931242003F0C9
:103C100000FC0FF28931252003F0FBFB16E00FF2C8
:103C2000C131262003F0F5FB0FF2F931272003F014
:103C3000F0FB0BE00FF23141282003F0EAFB05E036
:103C40000FF26941292003F0E4FBFFE70020DFF8D1
:103C5000A814E4B221F8140031BD38B504000D00F9
:103C60000F20054201D10220AEE0DFF88404E4B267
:103C7000502101FB04000079002803D002282FD036
:103C800017D344E0EDB22900DFF86404E4B2502217
:103C900002FB04000068FFF70DFCEDB22900DFF81D
:103CA0005004E4B2502202FB04000068FFF707FC56
:103CB0002DE0EDB22900DFF83804E4B2502202FB17
:103CC00004000068FFF71CFCEDB22900DFF82004B7
:103CD000E4B2502202FB04000068FFF716FC16E075
:103CE000EDB22900DFF80804E4B2502202FB040020
:103CF0000068FFF72BFCEDB22900DFF8F403E4B213
:103D0000502202FB04000068FFF725FCFFE7E4B245
:103D1000002C09D0022C21D013D3042C38D02AD364
:103D2000062C49D041D34EE0C320054202D01420D6
:103D300003F077FB3C20054202D0132003F071FB17
:103D400041E0C320054202D0202003F06AFB3C2062
:103D5000054202D01F2003F064FB34E0C32005427B
:103D600002D0232003F05DFB3C20054202D022203C
:103D700003F057FB27E0C320054202D0252003F0C3
:103D800050FB3C20054202D0242003F04AFB1AE0FD
:103D9000C320054202D0272003F043FB3C2005420C
:103DA00002D0262003F03DFB0DE03E20054202D06C
:103DB000282003F036FB06E03E20054202D02920F1
:103DC00003F02FFBFFE7002032BD000070B5724802
:103DD0000068FFF769FB10F03C000600C648008849
:103DE00006403000C0B200280ED0C2483100C9B22F
:103DF000085C0500C148EDB250F825000400A0475A
:103E00000120A8408643ECE770BD000070B5624811
:103E10000068FFF749FB10F0C3000600B6480088B1
:103E200006403000C0B200280ED0B2483100C9B2FE
:103E3000085C0500B148EDB250F825000400A04729
:103E40000120A8408643ECE770BD000070B55248E1
:103E5000006DFFF729FB10F03C000600A6484088E3
:103E600006403000C0B200280FD0A2483100C9B2CD
:103E7000085C0500A148EDB210EB85000069040064
:103E8000A0470120A8408643EBE770BD70B54248CB
:103E9000006DFFF709FB10F0C3000600964840884C
:103EA00006403000C0B200280FD092483100C9B29D
:103EB000085C05009148EDB210EB85000069040034
:103EC000A0470120A8408643EBE770BD70B532489B
:103ED000D0F8A000FFF7E8FA10F03C000600864892
:103EE000808806403000C0B200280FD081483100E1
:103EF000C9B2085C05008148EDB210EB8500006A8C
:103F00000400A0470120A8408643EBE770BD0000F5
:103F100070B52148D0F8A000FFF7C6FA10F0C30032
:103F200006007548808806403000C0B200280FD0D7
:103F300070483100C9B2085C05007048EDB210EB62
:103F40008500006A0400A0470120A8408643EBE7F3
:103F500070BD000070B51048D0F8F000FFF7CAFA45
:103F600010F03C0006006448C08806403000C0B233
:103F700000280FD05F483100C9B2085C05005F48D7
:103F8000EDB210EB8500006B0400A0470120A840B3
:103F90008643EBE770BD000070C8020070B554485E
:103FA000D0F8F000FFF7A6FA10F0C3000600524860
:103FB000C08806403000C0B200280FD04D48310004
:103FC000C9B2085C05004D48EDB210EB8500006BEE
:103FD0000400A0470120A8408643EBE770BD000025
:103FE00070B54348D0F84001FFF784FA10F03C0068
:103FF00006004148008906403000C0B200280FD0BA
:104000003C483100C9B2085C05003C48EDB210EBF9
:104010008500006C0400A0470120A8408643EBE720
:1040200070BD000070B53248D0F84001FFF762FA69
:1040300010F0C30006003048008906403000C0B2CE
:1040400000280FD02B483100C9B2085C05002B486E
:10405000EDB210EB8500006C0400A0470120A840E1
:104060008643EBE770BD000070B52148D0F89001A1
:10407000FFF766FA10F01C0006001F484089064052
:104080003000C0B200280FD01A483100C9B2085C15
:1040900005001A48EDB210EB8500006D0400A04742
:1040A0000120A8408643EBE770BD000070B51048C2
:1040B000D0F8E001FFF744FA10F01C0006000E48AB
:1040C000808906403000C0B200280FD00948310076
:1040D000C9B2085C05000948EDB210EB8500006E1E
:1040E0000400A0470120A8408643EBE770BD000014
:1040F00070C8020030CD0200446F0120106D012015
:104100003974020070B50C46257835B970BD11F8C8
:10411000013F1678B34206D0401C294603F034FD17
:1041200028B10146224612F8013F002BEFD170BDA5
:1041300070B504461E000846154604D015F8011B4C
:10414000A047761EFAD170BD2DE9F04784B08246B3
:10415000894614461F460DF1000807E00123224658
:1041600049465046FFF7E4FF8146641C207810B9A9
:1041700004B0BDE8F0872528F0D16078A41C25287C
:10418000014618D058285CD063280ED0642818BF88
:10419000692814D06F2854D0702858D073285DD067
:1041A000752818BF78284CD0E0E73868386050F898
:1041B000041B3860C9B24846D0478146D6E7386804
:1041C000386050F8045B3860002D03D52D21484637
:1041D000D047814664206F2808BF082205D040F0F0
:1041E0002001782914BF0A2210220B216428AC4632
:1041F00003D1002D48BFCCF1000CBCFBF2F502FB53
:1042000015CC0CF1300C5FFA8CFC4B1EBCF13A0F54
:10421000A4BFA0F1510EF44403F808C019465FEAA8
:10422000050C01D00129E8DA00A80D184846D1F1A3
:104230000B09C2D015F8011BD047B9F10109F9D11A
:10424000BBE73968396051F8045B3960C3E7386807
:10425000386050F8045B38607820BCE73868386014
:1042600050F8045B38602846FDF796FF0600484684
:10427000A3D015F8011BD047761EFAD19DE70000A8
:104280000A4A0A4002430A4B1A60704780B503F09D
:1042900087FC00F056F903F09FF806495FF00050E4
:1042A000FFF7EEFFFEF7BEFF01BD000080FFFF1F1E
:1042B00008ED00E0000100202DE9F04784B0040083
:1042C0000D0016001F00FEF77BFB8046DFF8FC01A7
:1042D000FFB250F82700002842D10120DFF8EC118E
:1042E000FFB241F827004046FEF76EFB0023320084
:1042F0002900200002F02AFF8146002002900020C1
:104300000190002000900023002249463800C0B2EE
:10431000FEF7D1FE82465FFA8AFABAF1000F11D198
:10432000FEF74EFB80466D480078401C6B490870D4
:104330004046FEF749FB6A48007801280DD1FEF798
:1043400034FE0AE0FEF73CFB804600205F49FFB2E6
:1043500041F827004046FEF737FB5046C0B203E065
:104360004046FEF731FB282004B0BDE8F0872DE978
:10437000F04104005B480078002801D03F20A3E012
:10438000FEF71EFB0500E4B2FF2C03D15048006885
:10439000C07F04004D48E4B250F824008046B8F1D4
:1043A000000F00F08D804B4898F82110085C98F8B9
:1043B00022108843474998F821205054454898F8DE
:1043C0002110085C002806D14348007898F8231093
:1043D000884341490870D8F80C000600002E15D01B
:1043E00098F821008019007A98F82210884398F8EC
:1043F00021108919087298F821008019007A002884
:1044000004D1707898F8231088437070D8F814009D
:104410000700002F02D0380002F004FF0020A8F8A7
:104420001C00002088F81E002F480078FF2804D0C8
:104430002D480078401C2C4908702800FEF7C4FA6B
:10444000FEF72CFCFEF7BCFA050027480078002890
:1044500004D025480078401E23490870404602F0E9
:1044600067FE1E480078401E1C490870002017494E
:10447000E4B241F82400D8F80800002808D1002050
:10448000D8F804108860D8F804001849086009E0DA
:10449000D8F80400D8F808104860D8F80800D8F810
:1044A0000410886012480068C8F804001048C0F87A
:1044B00000802800FEF788FAFEF777FD002003E071
:1044C0002800FEF781FA3C20BDE8F081946C0120C1
:1044D000DC6F0120D46F01201270012014700120C4
:1044E000137001200D7001200F700120E86F012072
:1044F000E06F012001218140254A116025490968AA
:10450000421C0B00D340D907F8D5704722480068F9
:1045100050F48070204908607047204A12687FF08C
:10452000030383401A40C9B211FA00F31A431B4B2C
:104530001A6070471A490968C0B20143184A1160ED
:10454000704780B54FF4007003F0DDFC002003F0ED
:1045500000FC012003F0EAFB03210020FFF7DDFF50
:1045600003210220FFF7D9FF032003F0FDFB3020D9
:1045700003F005FCFFF7CAFF1020FFF7DBFF062062
:10458000FFF7B8FF01BD80B503F05BFC02BD000082
:1045900020800C402C800C4008800C4028800C406F
:1045A00040800C40411E074A11600749096851F0DC
:1045B0000501054A11600449096851F00201024AE7
:1045C0001160704714E000E010E000E00020DFF828
:1045D0000013086000200A2818D24FF6FF71DFF898
:1045E000F4220C2303FB002211800021DFF8E422D7
:1045F0000C2303FB002251600FF21531DFF8D422A7
:104600000C2303FB00229160401CE4E7704730B4A8
:10461000030000200A280CD2DFF8B8420C2505FB65
:10462000004424889BB29C4201D1042021E0401C1C
:10463000F0E700200A281BD2A64C0C2505FB0044FD
:1046400024884FF6FF75AC4210D1A24C0C2505FB17
:10465000004423809F4C0C2505FB004462609D4C68
:104660000C2505FB00408160002002E0401CE1E7D2
:10467000012030BC7047010000200200D2B2202A85
:1046800011D2934800680300D340D80709D490485A
:1046900000680123934018438D4B18600A70002076
:1046A00004E0521CEAE72120087005207047010051
:1046B000C9B2202901D3062007E0854800680122FD
:1046C0008A409043824A10600020704730B4020054
:1046D000C9B2202901D306201CE000200A2818D2E4
:1046E0007C4B0C2404FB00331B8892B293420ED106
:1046F000784B0C2404FB00335B6801248C4023437B
:10470000744C0C2505FB00404360002002E0401C77
:10471000E4E7042030BC704710B40200C9B221297C
:1047200001D300201DE0C9B2202901D1012018E0E9
:1047300000200A2814D2674B0C2404FB00331B888A
:1047400092B293420AD1634B0C2404FB00335B68A2
:104750001C00CC40E30701D5012002E0401CE8E743
:10476000002010BC7047002101700021A0F801104A
:1047700070472DE9F44F05000E001F000A9CDDF87C
:104780002C80E81C81465FF0000A009882457BD2AD
:104790001AF80600FF2808D12878002805D1012042
:1047A00028700020A5F8010007E02878002804D030
:1047B0002878012801D0002028702878012860D1AD
:1047C0001AF80600B5F801104919C870B5F80100CB
:1047D000032809D1D9F8000003F04CFC10F1010FB7
:1047E00002D0002028704CE0B5F8010009281ED145
:1047F000B9F8040003F026FC8346042115F10900F2
:1048000003F044FC1FFA8BFB834502D00020287084
:1048100037E0B9F8060003F015FC2100C9B280B2F8
:10482000FFF77AFF002802D10020287029E0B9F8AC
:10483000080003F007FCB5F8011080B2093081428E
:1048400013D1B9F8080003F0FDFB8346B9F8060060
:1048500003F0F8FB43461FFA8BFB5A4619F10A0195
:1048600080B200F013F800202870B5F801008742EC
:1048700002D20020287004E0B5F80100401CA5F821
:1048800001001AF1010A80E7BDE8F18F2DE9F84334
:1048900004000D0016001F005FF00009B9F10A0FB7
:1048A00014D20C480C2101FB09000088A4B2A042DC
:1048B00009D108480C2101FB0900806880463A00B4
:1048C00031002800C04719F10109E7E7BDE8F1838D
:1048D000FC6F012000090020F8B504000D0016004F
:1048E0002F005FF0FF303860200080B203F0AAFB99
:1048F000F880300080B203F0A5FB38810421A81DA8
:1049000003F0C4FB80B203F09DFBB880F1BD000052
:10491000FEE7000062B670477047000072B670474D
:10492000704780B500F005F801BDDFF8E4090068C4
:10493000704780B5DFF8D809006803F0D5FB03F0B5
:10494000E3FBDFF8D01908605FF0AB30DFF8C41983
:10495000086001BD7047DFF8BC090068704770B59A
:1049600004000A25DFF8B0692A0031002000FCF7B6
:10497000C5FF70BD10B504000A22DFF89C192000A5
:1049800003F032FC002801D1012000E0002010BD1E
:10499000DFF888090088704713B50400FFF7BEFFF1
:1049A00003F076FC5FF4903003F07AFC022201A958
:1049B0005FF4903003F07FFCBDF804202100DFF8A5
:1049C000600903F078FC03F067FCFFF7A3FF13BD59
:1049D00070B504000D00ADB2DFF848692A0031005F
:1049E0002000FCF78BFF70BD70B504000D00ADB268
:1049F000DFF824692A0031002000FCF77FFF70BD3A
:104A000010B582B004000020ADF80000FFF786FF6B
:104A100003F03EFC5FF4903003F042FC022200A958
:104A20005FF4903003F047FC03F036FCFFF772FFB1
:104A300013BDDFF8F4080068704701B5FFF76EFF9B
:104A400003F026FC5FF4983003F02AFC042200A94E
:104A50005FF4983003F02FFC03F01EFCFFF75AFFC1
:104A600001BD70B504000425DFF8C0682A003100DC
:104A70002000FCF743FF70BD07B5FFF74FFF03F0C1
:104A800007FC5FF4A03003F00BFC092200A95FF4DF
:104A9000A03003F010FC03F0FFFBFFF73BFF07BD66
:104AA00070B504000925DFF888682A00310020006D
:104AB000FCF724FF70BDDFF87C18A1F801007047F7
:104AC000DFF8701888807047DFF86818A1F80700D1
:104AD000704701B5FFF722FF03F0DAFB5FF4A8305F
:104AE00003F0DEFB032200A95FF4A83003F0E3FB30
:104AF00003F0D2FBFFF70EFF01BD70B504000325E4
:104B0000DFF834682A0031002000FCF7F7FE0020AF
:104B100000F082FC002802D10120A07001E00020FA
:104B2000A07070BD01000A00DFF810389A4202D16F
:104B30000122100011E00A00DFF804389A4202D185
:104B40000222100009E00A00DFF8F8379A4202D189
:104B50000422100001E001221000C0B2704770B5BD
:104B600082B00324DFF8D05700AE220029003000C5
:104B7000FCF7C4FE01208DF800000098FFF7A9FFA4
:104B800073BD70B582B00324DFF8AC5700AE2200CD
:104B900029003000FCF7B2FE00208DF800000098DC
:104BA000FFF797FF73BDF8B504000325DFF88867AA
:104BB00000AF2A0031003800FCF7A0FE002000F012
:104BC0002BFC002803D101208DF8020002E0002018
:104BD0008DF80200E4B2002C07D19DF802000128F4
:104BE00006D101208DF8010002E000208DF80100BF
:104BF0000098FFF76EFFF1BD10B5C0B0040047206C
:104C00008DF800004E208DF8010000A801F02EFA6A
:104C10009DF8ED00412802D10120207001E0002024
:104C20002070601C0DF10A010E22FCF767FE40B0F7
:104C300010BD70B582B00324DFF8FC5600AE220030
:104C400029003000FCF75AFE002000F0E5FB0028A8
:104C500003D101208DF8020002E000208DF802004F
:104C60009DF80100012810D19DF8020000280CD108
:104C700002208DF801000098FFF72BFF0FF231633F
:104C800001220021022000F094F973BD00B5C1B0EB
:104C900047208DF8080050208DF8090002A801F087
:104CA000E5F99DF8F50041281DD19DF80A0010F5A1
:104CB000FA60ADF800009DF80B008DF802009DF839
:104CC0000C008DF803009DF80D008DF804009DF890
:104CD0000E008DF805009DF80F008DF8060000A865
:104CE00003F0C2FB01E003F0D2FB41B000BD00B510
:104CF000C9B0DFF854060078401CDFF84C16087085
:104D0000DFF8440600781E2863D10020DFF838164B
:104D1000087000A8FFF7F1FEDFF83006B0F80B00CE
:104D200042F21071DFF82426D2F80D2001FB00209A
:104D30000290DFF81806B0F80B0042F21071DFF8AD
:104D40000C26526901FB00200390DFF80006807AF0
:104D50008DF81000DFF8F405407C8DF81100DFF8C5
:104D6000D005B0F90400ADF81B00DFF8C405B0F8B9
:104D70000100ADF81900DFF8B805B0F90700ADF88B
:104D80001D00DFF8B005B0F80100ADF81300DFF842
:104D9000A405B0F90400ADF81500DFF89805B0F9E6
:104DA0000700ADF81700DFF86805006803F056F952
:104DB000019001208DF81F009DF802008DF812006F
:104DC0001C2201A908A801F00EFC362108A801F058
:104DD0006CFC49B000BD38B5040000A8FFF78DFE9B
:104DE000DFF8480500880A2802DA0A20050003E0F7
:104DF000DFF83805008805009DF80100002807D07D
:104E00000FF2AD430222690889B2002000F0D1F808
:104E100031BD70B5C4B0040002A800F022FA002829
:104E200074D10020060001208DF800009DF80000DC
:104E300000286BD0761CFBF7B3FA01280BD1F6B231
:104E4000032E08DA0120050001F0C1FA4FF47A7050
:104E5000FCF794FD09E00220050001F0B2FAFDF72D
:104E60005AFD42F21070FCF789FDEDB2002D08D01A
:104E7000022D18D00ED3042D2DD01CD3052D33D0E8
:104E800043E000AA9DF8081089B20DF10900FCF773
:104E90002FF8CBE700AA9DF8081089B20DF10900A0
:104EA000FCF726F8C2E79DF8081089B20DF1090059
:104EB00001F010FDBAE700AA9DF8081089B20DF1C3
:104EC0000900FCF715F89DF8081089B20DF10900EA
:104ED00001F000FDAAE700AA9DF8081089B20DF1C3
:104EE000090002F0E4F8A1E700AA9DF8081089B2D1
:104EF0000DF10900FBF7FCFF00AA9DF8081089B22C
:104F00000DF1090002F0D3F890E78FE701A8FFF751
:104F1000F4FD9DF80500002801D101F058FA44B0D5
:104F200070BD30B593B004000D000CA803F03EFB3B
:104F30000EA8FFF761FE08A8FFF7DFFD09A8FFF73D
:104F4000AFFDDFF8F003B0F80100ADF82500DFF8A1
:104F5000E4038088ADF82800DFF8D803B0F8070034
:104F6000ADF82B00079509A804AA0AC80AC203686D
:104F700013600838083A089803900EA881B0694673
:104F80000CC80CC10CC80CC11038103908BCDDE9C4
:104F90000C010A0001002000C0B203F07AFD13B03A
:104FA00030BDDFF8AC1308707047DFF8A403007859
:104FB00070472DE9F04FA3B004000D0092469B46C8
:104FC0005FFA8AFABAF1060F80F21181002080465A
:104FD0005FFA88F85FFA8AFAD04580F0ED80002009
:104FE00081461FFA89F9ADB2A94519D204A8FFF785
:104FF00084FD9DF81100002803D0FFF7D6FF01289B
:1050000007D10020FFF7CDFF4FF47A70FCF7B6FC14
:10501000EDE04FF47A70FCF7B1FC19F10109E0E71B
:105020005FFA88F8B8F1000F2FD10DA803F0BEFA8F
:105030000AA8FFF735FD002006009DF8280001288A
:1050400001D156F001069DF82B00012801D156F040
:1050500002069DF82E00012801D156F00406E4B2A4
:10506000002C12D10020BB4981F850000020B94922
:1050700081F85100B748A0F85250B64880F8546003
:10508000B5480DA90722FCF739FC04A8FFF735FD48
:105090009DF811009DF8121051EA00100FA95FFA57
:1050A00088F85FEA0812505406A8FFF7A5FD9DF89E
:1050B00018000FA95FFA88F811EB081148709DF8E5
:1050C000180001282CD100200700BDF81A00A349C0
:1050D000079A01FB002007009DF81900532801D111
:1050E00057F400470FA85FFA88F810EB0810C0F8D3
:1050F000067000200700BDF821009849DDF8232044
:1051000001FB002007009DF82000572801D157F42B
:1051100000470FA85FFA88F810EB0810C0F802707B
:105120000AA8FFF7BDFC8348B0F801000FA95FFA99
:1051300088F811EB081148817E4880880A2190FB8D
:10514000F1F00FA95FFA88F811EB0811087305A8B0
:1051500000F038FA9DF815000FA95FFA88F811EBF6
:10516000081148739DF816000FA95FFA88F811EB33
:10517000081188739DF817000FA95FFA88F811EBE2
:105180000811C873E4B2002C13D172485FFA88F892
:1051900010EB08100FA95FFA88F811EB0811102224
:1051A000FCF7ACFB6B4890F85000401C694981F853
:1051B000500018F101080BE7CDF80CB05046C0B212
:1051C00002900FA801903000C0B200902B009BB25B
:1051D000DDE90D010A0001002000C0B203F01FFD4F
:1051E000E4B2002C03D100205A4981F8500023B0CA
:1051F000BDE8F08F0020574981F85000704710B586
:1052000086B00400534890F8500000281FD004A82E
:1052100051490722FCF772FB03944E4890F8500066
:1052200002904C4801904B4890F854000090494837
:10523000B0F85230DDE904010A000100454890F859
:10524000510003F0ECFC0020424981F8500006B008
:1052500010BD80B5424803F001FE002041490870AE
:1052600001BD10B5C2B004003D4803F0FFFD0128A8
:1052700001D1032019E001203A490870C82340F207
:10528000011200A9364803F040FE01A8009940F23F
:105290000112FCF733FB002032490870200001A9FD
:1052A00040F20112FCF72AFB002042B010BD0000C2
:1052B0002DE9F04182B004000D00ADB2B5F5807F5C
:1052C00001DD012022E027480078002803D00A20D1
:1052D000FCF754FBF7E7C821214803F0D0FD012873
:1052E00001D1022012E0C82340F2011200A91C489B
:1052F00003F0CEFD009806003570377816F10108EE
:105300003A0021004046FCF7F9FA0020BDE8F6819A
:1053100000000100A06F0120022001000020010018
:10532000022001000C2001000010010000300100EB
:1053300000400100706F012000500100E11C0200DC
:1053400041690200096C020004700120206A0120FA
:1053500003700120446E0120996E0120A086010097
:10536000D10B0020D00B002089B2344AC0B22423D4
:1053700003FB00221161704702003048D2B224239F
:1053800003FB0200C06989B2084201D0012000E09D
:105390000020704738B504000D00290089B22000B4
:1053A000C0B2FFF7E1FF31BD38B504000D002900A0
:1053B00089B22000C0B2FFF7DFFF32BD10B582B066
:1053C000040000200090002304221D48E4B230F8BD
:1053D00034101B48E4B210EBC4008078FDF728FFBE
:1053E00000200090002301221548E4B210EBC40015
:1053F00081881348E4B210EBC4008079FDF718FFF0
:105400000F48E4B230F834100D48E4B210EBC40099
:105410008078FFF7BFFF13BD38B504000848E4B239
:1054200010EBC40081880648E4B210EBC400807918
:10543000FFF7BAFF05002800C0B232BD006000408F
:1054400088D3020089B2294AC0B2242303FB002278
:105450001161704789B2254AC0B2242303FB0022A0
:105460009161704738B504000D00290089B2200011
:10547000C0B2FFF7E7FF31BD38B504000D002900C9
:1054800089B22000C0B2FFF7E5FF31BD10B582B090
:10549000040000200090002304221548E4B210EB21
:1054A000840041881248E4B210F82400FDF7C0FEE1
:1054B00013BD10B504000E48E4B210EB840041881F
:1054C0000B48E4B210F82400FFF7CCFF10BD10B574
:1054D00004000748E4B210EB840041880448E4B2B9
:1054E00010F82400FFF7C8FF10BD00000060004066
:1054F000DCD0020080B503F047FD0020334908707E
:1055000000203349087001BD30B585B001A8FFF710
:10551000C7FA00A803F013FE012851D19DF800003E
:105520002A4948709DF80100284988709DF80200BA
:105530002649C8709DF80A0001283ED1BDF80B002D
:1055400042F21071484340F2712190FBF1F00A21C0
:1055500090FBF1F00500002004001C4890F90100C8
:1055600003F013FE854201D201200400174890F990
:10557000020003F00AFE854201D201200400134814
:1055800090F9030003F001FE854201D201200400DE
:10559000E4B2012C0DD10E480078002805D10D4B46
:1055A000012200210620FFF704FD012008490870B0
:1055B00006E000200649087002E000200449087057
:1055C00005B030BD0149096801607047F86F0120DE
:1055D00015700120B152020089B22B4AC0B22423B7
:1055E00003FB00221161704789B2274AC0B224230D
:1055F00003FB00225161704738B504000D002900FB
:1056000089B22000C0B2FFF7E7FF31BD38B5040012
:105610000D00290089B22000C0B2FFF7E5FF31BDBF
:1056200080B55FF4E130FCF7A1FA00F00CF800F06F
:1056300014F84FF4FA70FCF7A1F900F014F81348CD
:1056400000F017F801BD80B500200090002304226F
:1056500080210020FDF7ECFD01BD80B580210020F8
:10566000FFF7D4FF01BD80B580210020FFF7C4FF04
:1056700001BD1FB5040000A805490E22FCF73EF944
:105680000D2100A8A0471FBD00600040C71B0200FD
:1056900004D202002DE9F84380460C005FF07E50F2
:1056A000070000200500002C01D1280057E0002051
:1056B0000600A64207D258F826002E2801D1B1468E
:1056C00001E0761CF5E7A64200D1A14600200600C5
:1056D0004E4517D2B9EB060018EB800050F8040CC9
:1056E000303803F057FD390003F064FD290003F062
:1056F000CDFD0500DFF87007390003F05BFD070002
:10570000761CE5E70022DFF844380020DFF8401877
:1057100004F00DF804F024FA070019F10100060066
:10572000A6421BD258F82600303803F033FD39006A
:1057300003F040FD290003F0A9FD05000022DFF879
:105740000C380020DFF8081803F0F1FF04F008FA25
:10575000390003F02FFD0700761CE1E72800BDE8C3
:10576000F2832DE9F24FA0B004001500012081461C
:10577000002080460020060000200700002082460E
:105780002098824580F02D811AF804002C2804D03E
:105790001AF804002A2840F01B81012F1CD0C0F009
:1057A0001381032F49D044D3052F00F08980C0F026
:1057B0007F80072F00F0C680C0F0BD80092F00F069
:1057C000D780C0F0CA800B2F00F0F380C0F0E680D5
:1057D0000C2F00F0F680F7E000980A21019A01FBF7
:1057E00000201038687102980A21039A01FB0020FA
:1057F0001038A87104980A21059A01FB002010387E
:10580000E87107208346B34510D200A8B6EB0B0120
:10581000C91D10EB810050F8040C303809FB0088DA
:105820000A2000FB09F91BF1010BECE7A5F8088041
:10583000CAE0009885F8ED00C6E095F8ED0056281E
:1058400000F0C2800120814600208046002083466F
:10585000BBF1040F0ED200A8DBF1000110EB8100B8
:10586000C068303809FB00880A2000FB09F91BF1E9
:10587000010BEDE7A5F80B80012081460020804652
:1058800005208346B34510D200A8B6EB0B01491D95
:1058900010EB810050F8040C303809FB00880A2016
:1058A00000FB09F91BF1010BECE7C5F80D808BE05B
:1058B00095F8ED00562800F087800098A87283E0E4
:1058C00095F8ED00562800F07F80012081460020E9
:1058D000804600208346BBF1050F0ED200A8DBF105
:1058E000000110EB81000069303809FB00880A20B4
:1058F00000FB09F91BF1010BEDE7A5F8128001206F
:1059000081460020804606208346B34510D200A879
:10591000B6EB0B01891D10EB810050F8040C3038F8
:1059200009FB00880A2000FB09F91BF1010BECE7D9
:10593000C5F8148048E095F8ED00562844D000984A
:10594000687441E095F8ED0056283DD0310000A87C
:10595000FFF7A0FEC5F8EE0036E095F8ED005628FA
:1059600032D0310000A8FFF795FEC5F8F2002BE019
:1059700000980A21019A01FB002010382871029832
:105980000A21039A01FB00201038E87004980A21CC
:10599000059A01FB00201038A87015E095F8ED007D
:1059A000562811D0310000A8FFF774FEC5F8F600A4
:1059B0000AE095F8ED00562806D0009885F8FA0020
:1059C00002E0009885F8FB007F1C0020060005E03F
:1059D0001AF8040000A941F82600761C1AF1010A01
:1059E000CEE621B0BDE8F08F2DE9F24FA2B0040061
:1059F000150001208146002080460020060000207E
:105A00000700002082462298824519D21AF8040025
:105A10002C2803D01AF804002A2808D1062F02D116
