:100000000073012011D2020097720200997202005F
:100010009B7202009D7202009F720200A172020098
:10002000A1720200A1720200A1720200A17202007C
:10003000A1720200A1720200032A0200A372020050
:0410000054494E49B8
:102000001800000002000030000000000400004042
:102010000000000006003412000000000000000074
:0430000000000000CC
:0440000000000000BC
:020000040001F9
:04000000FC2A0000D6
:0410000000000000EC
:102000000A000D0613112C3012345678000000001F
:04300000B4000A020C
:0C400000000000000000000000000000B4
:0450000001000000AB
:020000040002F8
:100000000020DFF8641808600020DFF85C18486002
:100010000020DFF8541808720020DFF84C184872EE
:10002000704710B504002000DFF83C180A2201F0E8
:1000300065FC10BD17B4DFF8300800A91CC91CC04E
:100040000C390C3817BC70472DE9F8430400A14661
:10005000012005000120060000208046EDB2002DA1
:1000600000F09C815FFA89F94846002822D00128D7
:1000700035D0022849D003285CD004286FD0052849
:1000800000F0C180062800F0D980072800F0EB803E
:10009000082800F00981092800F040810B2800F0B1
:1000A00065810C2870D00D2800F083800E2800F0A8
:1000B000958068E100F034FA0700FFB2002F02D10A
:1000C000012081460AE0FFB2012F02D10B208146B8
:1000D00004E0FFB2022F01D10B20814653E1012041
:1000E00000F04AFE0700FFB2002F02D10220814635
:1000F0000AE0FFB2012F02D10020814604E0FFB2E6
:10010000022F01D10B2081463DE100F068FE07007F
:10011000FFB2002F02D1032081460AE0FFB2012F77
:1001200002D10020814604E0FFB2022F01D10B2052
:10013000814628E100F019FA0700FFB2002F02D132
:10014000042081460AE0FFB2012F02D1002081463F
:1001500004E0FFB2022F01D10B20814613E100F031
:10016000E7FC0700FFB2002F02D10C2081460AE015
:10017000FFB2012F02D10020814604E0FFB2022F1E
:1001800001D100208146FEE001F03BF90700FFB2FB
:10019000002F02D10D2081460AE0FFB2012F02D1CB
:1001A0000020814604E0FFB2022F01D100208146E9
:1001B000E9E001F055F90700FFB2002F02D10E204F
:1001C00081460AE0FFB2012F02D10020814604E0FF
:1001D000FFB2022F01D100208146D4E001F0E2F805
:1001E0000700FFB2002F02D1052081460AE0FFB2CE
:1001F000012F02D10020814604E0FFB2022F01D17D
:1002000000208146BFE000F0F7FC0700FFB2002F9E
:1002100004D106208146002080460EE0FFB2012F67
:1002200004D10420814618F1010806E0FFB2022F34
:1002300003D10020804600208146A4E000F03EFD6E
:100240000700FFB2002F02D1072081460AE0FFB26B
:10025000012F02D10420814604E0FFB2022F01D118
:10026000002081468FE0DFF808060078012818D1C9
:1002700000F0A1F90700FFB2002F06D10020DFF83F
:10028000F0150870082081460DE0FFB2012F02D161
:100290000B20814607E0FFB2022F04D100208146E7
:1002A00001E0082081466EE000A800F0C6F90700D2
:1002B000FFB2002F19D1DFF8BC0500789DF80010BF
:1002C000884204D0DFF8AC05007800F0FAFB9DF816
:1002D0000000DFF8A0150870FFF792FE012006006D
:1002E000092081460020804617E0FFB2012F0DD182
:1002F000DFF88005007800F0E4FB062081464FF42B
:100300007A7001F03BFB18F11E0806E0FFB2022FE5
:1003100003D1002081460020804634E0DFF85405F8
:10032000027844F64221DFF8500500F0E4F90700B6
:10033000FFB2002F02D10020050016E0FFB2012F0E
:100340000ED1F6B2012E06D140F6B83001F016FB00
:100350000920814601E0062081460020060004E0D5
:10036000FFB2022F01D1002081460CE000F030F8EE
:10037000002080460120DFF8F814087001200600F4
:1003800000208146FFE71FFA88F8B8F1510FFFF609
:1003900065AE002080460B2081465FE6BDE8F18314
:1003A000DFF8D80400787047DFF8D0140870704781
:1003B00080B50020DFF8C414087001F0ABFB01F039
:1003C000D1FB40F2DC5001F0D9FA00F001F801BD98
:1003D00080B50020DFF8A4140870FFF711FE01F0CB
:1003E000AFFB4FF47A7001F0C9FA01F0AFFB4FF4A4
:1003F0007A6001F0C3FA00F0FDFD01BDDFF874047E
:10040000007870472DE9F041E0B004000D001600BF
:100410000020804600200700ADB2002D56D001F02C
:1004200081FC002809D101F083FC00A91FFA88F89B
:1004300008F8010018F10108F1E700200700BFB239
:100440001FFA88F847450CD200A8BFB2385CBFB28B
:100450003855BFB2B6B2B74201D300205DE07F1C71
:10046000EDE70020BFB238556D1EDFF814142000F0
:1004700001F056FE002802D0B6B2802E14D1DFF86B
:100480000414200001F04CFE002806D0DFF8F81319
:10049000200001F045FE002806D1DFF8F01320000F
:1004A00001F03EFE002801D0012036E0DFF8E01325
:1004B000200001F035FE002801D000202DE064234B
:1004C00000220021002001F08CFAA5E7BFB2002F26
:1004D00001D1022021E0DFF8A813200001F020FE66
:1004E000002802D0B6B2802E14D1DFF89813200075
:1004F00001F016FE002806D0DFF88C13200001F072
:100500000FFE002806D1DFF88413200001F008FE5A
:10051000002801D0012000E0002060B0BDE8F0819B
:10052000F0B591B04025CC2600AF3200290038004C
:1005300001F0FEFD01F016FC032132A001F0C7FB23
:1005400040221E2100A8FFF75DFF0400E4B2002C4A
:1005500004D0022C04D005D2002004E0012002E0E7
:10056000022000E0012011B0F0BDF0B599B0602587
:10057000CC2600AF32002900380001F0D9FD01F08F
:10058000F1FB0921DFF8A40501F0A1FB602228217D
:1005900000A8FFF737FF0400E4B2002C04D0022CBF
:1005A00004D005D2002004E0012002E0022000E097
:1005B000012019B0F0BDF0B591B04025CC2600AFB8
:1005C00032002900380001F0B3FD01F0CBFB0D2112
:1005D000DFF8200601F07BFB40223C2100A8FFF75A
:1005E00011FF0400E4B2002C04D0022C04D005D288
:1005F000002004E0012002E0022000E0012011B010
:10060000F0BD000041540D0030B4020001252C0063
:100610000025280000290ED000252B008B420AD28D
:10062000CD1AAD1815F8015C303D04FB05000A2514
:100630006C435B1CF2E730BC70472DE9F04FA1B072
:10064000040000200600002007005FF060095FF052
:10065000CC0A0DF1200B52464946584601F068FD80
:1006600001F080FB0B21DFF8840801F030FB6022F1
:10067000282108A8FFF7C6FE0500EDB2012D2DD1F7
:100680000020804608A801F087FD1FFA88F8804501
:1006900022D208A81FFA88F818F8000020280FD1E5
:1006A0007F1CFFB2012F08D108A81FFA88F818EBA9
:1006B0000000407830382070FFE70020060008E096
:1006C00008A81FFA88F818F8000000A9F6B27054BC
:1006D000761C18F10108D5E7002009E0EDB2002DE5
:1006E00001D1012004E09DF800008DF800000220F7
:1006F00021B0BDE8F08F2DE9F04FADB080460C0081
:100700001500A4B203944046C0B202905FEA1820DC
:10071000C0B201905FEA1840C0B200905FEA18636F
:10072000DBB2EDB22A00DFF8C41814A801F050FDC6
:1007300007005FF040095FF0CC0A0DF1100B524644
:100740004946584601F0F4FC01F00CFBBFB23900F9
:1007500014A801F0BCFA4022C82104A8FFF752FEF9
:100760000600F6B2002E04D0022E04D005D20020DE
:1007700004E0012002E0022000E001202DB0BDE8ED
:10078000F08F2DE9F04FADF5037D04000D0016004C
:100790004FF480775FF000080DF584794246390008
:1007A000484601F0C5FC4FF480795FF0000A0DF176
:1007B000080B52464946584601F0BAFCADB22B0030
:1007C000F6B23200DFF8281842A801F001FDADF8BA
:1007D00000000D2042A9BDF80020505401F0C2FADB
:1007E000BDF80000411C42A801F071FA20220A2144
:1007F00002A8FFF707FE8DF802001CA102A801F075
:100800008FFC0190019800281AD0ADB22900200079
:1008100001F05DFA4FF48072642102A8FFF7F2FD47
:100820008DF802009DF80200002804D0022804D0B0
:1008300005D2002012E0012010E002200EE00CE0C2
:10084000ADB22900200001F042FA0D2020700A20EC
:1008500060700221200001F03AFA01200DF5037DBD
:10086000BDE8F08F00000000686E01200D0A400016
:10087000CD0B0020F26E01204F582879F36E012035
:100880003CD2020044D202004CD2020054D20200F8
:100890005CD202002DE9FF4FADF5037D849800285E
:1008A00001D1002009E101208DF8000000208DF821
:1008B00001000A2006000020070000208046BDF845
:1008C00014329DF81822DFF8781A03A801F080FC92
:1008D000814601F047FA1FFA89F9494603A801F059
:1008E000F6F94FF400700290002001900DF10C0B0E
:1008F000019A0299584601F01BFC9DF8000000285F
:1009000000F0CF80761EF6B2002E03D100208DF8C5
:10091000000005E0642300220021002001F061F8BE
:1009200001F000FA002806D101F002FA03A9BFB2D3
:1009300078547F1CF4E7DFF8641903A801F0F0FB9A
:100940000400002CD9D0AAA1200001F0E9FB04008A
:10095000002CD2D074A1200001F0E2FB0500002D94
:10096000CBD0281B401E8DF80200002080460020BE
:1009700081469DF802001FFA89F980B2814510D2A4
:100980000A2000FB08F81FFA89F919EB04004078E7
:10099000303810EB08088498A0F8008019F101099C
:1009A000E7E703A8281A1FFA88F810EB4800801C14
:1009B000BFB2B842A1D2002082465046C0B280B237
:1009C0001FFA88F8404565D25FFA8AFA15EB4A00AB
:1009D0008078412816DB5FFA8AFA15EB4A008078A6
:1009E00041385FFA8AFA15EB4A0188705FFA8AFA91
:1009F00015EB4A0080780A305FFA8AFA15EB4A0153
:100A000088700AE05FFA8AFA15EB4A00807830387D
:100A10005FFA8AFA15EB4A0188705FFA8AFA15EBD9
:100A20004A00C078412816DB5FFA8AFA15EB4A00C3
:100A3000C07841385FFA8AFA15EB4A01C8705FFA4C
:100A40008AFA15EB4A00C0780A305FFA8AFA15EB89
:100A50004A01C8700AE05FFA8AFA15EB4A00C078CA
:100A600030385FFA8AFA15EB4A01C8705FFA8AFAE1
:100A700015EB4A0080785FFA8AFA15EB4A01C978CB
:100A800011EB001083995FFA8AFA0AF801001AF153
:100A9000010A92E701208DF8010000208DF8000086
:100AA0002BE79DF80100012801D1002005E0BFB22D
:100AB000002F01D1012000E002200DF5077DBDE8E7
:100AC000F08F2DE9F043A1B0040040275FF0CC087F
:100AD0000DF1400942463900484601F029FB01F07A
:100AE00041F9E4B22200DFF8741B00A801F070FBAA
:100AF0000600B6B2310000A801F0E9F840221E213C
:100B000010A8FFF77FFC0500EDB2002D04D0022DE8
:100B100004D005D2002004E0012002E0022000E021
:100B2000012021B0BDE8F0832C22000074D1020026
:100B30002DE9F04FA1B000200500002006005FF075
:100B400060095FF0CC0A0DF1200B52464946584629
:100B500001F0EEFA01F006F90721DFF8EC0C01F0E4
:100B6000B6F86022282108A8FFF74CFC0400E4B284
:100B7000012C33D100200700BFB2602F20DA08A873
:100B8000BFB2385C2C2804D008A8BFB2385C20283B
:100B90000DD1761CF6B2022E06D1EDB2290000A8C6
:100BA000FFF732FD8046FFE70020050006E008A8B9
:100BB000BFB2385C00A9EDB268546D1C7F1CDBE746
:100BC0001FFA88F8B8F1000F04D01FFA88F8B8F1BE
:100BD000630F01D1012007E0002005E0E4B2002C02
:100BE00001D1012000E0022021B0BDE8F08F00001B
:100BF0002C000000B8D002002DE9F04FA1B0002079
:100C00000500002006005FF060095FF0CC0A0DF1DE
:100C1000200B52464946584601F08AFA01F0A2F8E4
:100C20000921DFF8800C01F052F86022642108A845
:100C3000FFF7E8FB0400E4B2012C31D100200700EB
:100C400008A801F0A9FABFB287421BD208A8BFB218
:100C5000385C2C280DD1761CF6B2012E06D108A8DE
:100C6000BFB23818407830388046FFE700200500D2
:100C700006E008A8BFB2385C00A9EDB268546D1C4C
:100C80007F1CDDE71FFA88F8B8F1010F04D01FFAC6
:100C900088F8B8F1050F01D100200BE0012009E030
:100CA000E4B2002C01D1012004E09DF800008DF891
:100CB0000000022021B0BDE8F08F00002DE9F04FC8
:100CC000A1B000200500002006005FF060095FF081
:100CD000CC0A0DF1200B52464946584601F028FA3D
:100CE00001F040F80A21DFF8C00B00F0F0FF6022AD
:100CF000282108A8FFF786FB0400E4B2012C2ED1BE
:100D000000200700BFB2602F1BDA08A8BFB2385C12
:100D10002C280DD1761CF6B2012E06D108A8BFB240
:100D20003818407830388046FFE70020050006E09C
:100D300008A8BFB2385C00A9EDB268546D1C7F1CD6
:100D4000E0E71FFA88F8B8F1010F04D01FFA88F81D
:100D5000B8F1050F01D100200BE0012009E0E4B259
:100D6000002C01D1012004E09DF800008DF8000066
:100D7000022021B0BDE8F08F2DE9F043C1B004009E
:100D8000E4B22200DFF8241B00A801F021FA0500DC
:100D900000F0E8FFADB2290000A800F098FF4FF482
:100DA00080775FF000080DF100094246390048469F
:100DB00001F0BEF94FF48072142100A8FFF722FB66
:100DC0000600F6B2012E01D1002005E0F6B2002E99
:100DD00001D1012000E0022041B0BDE8F083F0B570
:100DE00091B04025CC2600AF32002900380001F038
:100DF0009FF900F0B7FF0E21DFF8B40A00F067FF9B
:100E000040221E2100A8FFF7FDFA0400E4B2002CE6
:100E100004D0022C04D005D2002004E0012002E01E
:100E2000022000E0012011B0F0BD70B590B00400C8
:100E300000F024F8A4B22200DFF8781A00A801F02C
:100E4000C7F9060000F08EFFF6B2310000A800F0EE
:100E50003EFF40221E2100A8FFF7D4FA0500EDB2A4
:100E6000002D04D0022D04D005D2002004E0012082
:100E700002E0022000E0012010B070BD30B591B05A
:100E8000DFF8341A00A801F0A3F9050000F06AFFAA
:100E9000EDB2290000A800F01AFF40220F2100A89F
:100EA000FFF7B0FA040000F05DFFEDB2290000A8E2
:100EB00000F00DFF4022142100A8FFF7A3FA040060
:100EC000DFF8F41900A801F083F9050000F04AFFEB
:100ED000EDB2290000A800F0FAFE4022192100A876
:100EE000FFF790FA0400002011B030BD80D102005D
:100EF0002DE9FF4104000D00160000F06EF80028F7
:100F000003D10A2000F03AFDF7E7002000F069F86D
:100F1000FFF7B4FF0020070001203070DFF89C09C4
:100F20000278290089B22000FFF72BFC00282AD183
:100F300000208DF80C0001208DF80D0000F0AFFDB1
:100F4000019001A807C8FFF775F80020804601202E
:100F500000F047F800AA4FF47A71DFF864090068DE
:100F600001F076F918F101085FFA88F8B8F12C0F52
:100F700002DB0020070009E09DF800000028E6D110
:100F80000120070002E0012000F02BF8FFB2012F42
:100F900002D10020307009E001F0C1FC00232822BA
:100FA0000221002000F01DFD01203070BDE8FF810E
:100FB000F8B504000D001600FFF720FA07003B000B
:100FC000DBB2320092B229002000FFF763FC002858
:100FD00001D1002000E00120F2BDDFF8E808007830
:100FE0007047DFF8E01808707047000028D0020052
:100FF000C8D00200F0B5B1B0012006000020040006
:1010000000208DF8180000200700F6B2002E7DD0D9
:10101000E4B2002C06D0022C2BD03BD3042C66D09B
:1010200044D370E005A800F073F80500EDB2002D80
:101030001ED19DF81400312803D09DF814003528E6
:1010400002D10020060013E09DF81400322806D1DA
:101050004FF47A7000F092FC0020040008E09DF844
:101060001400302802D10220040001E00020060014
:10107000CBE742F2107000F081FC06A800F08AF87D
:101080000500EDB2002D02D10120040001E0002096
:101090000600BAE700F004F90500EDB2002D02D118
:1010A0000320040001E000200600AEE79DF81800D0
:1010B000FFB2874218D206A8FFB2212101FB070028
:1010C000411C84B06846212200F018FC0FBC00F0DF
:1010D00009F905007F1CEDB2002D02D104200400A7
:1010E00093E70320040090E7002006008DE700F05E
:1010F00029F90500EDB2002D02D10020060001E023
:101100000320040081E7002006007EE731B0F0BD37
:101110002DE9F047C0B004003020207000F022FE1E
:101120000A21DFF8A40700F0D2FD4FF480785FF0C9
:1011300000090DF1000A4A464146504600F0F8FF0A
:101140004FF480721E2100A8FFF75CF90500EDB294
:10115000012D1AD10020070000200600F6B21E2E35
:101160000EDA00A8F6B2305C3A2807D100A8F6B231
:101170003018007920700120070001E0761CEDE7AF
:10118000FFB2012F01D1002000E0012040B0BDE8F6
:10119000F08700002DE9F04FC1B00400002020705E
:1011A000DFF8281701A801F013F8804600F0DAFDF7
:1011B0005FFA88F8414601A800F089FD4FF4807974
:1011C0005FF0000A0DF1040B52464946584600F004
:1011D000AFFF4FF480724FF4C87101A8FFF712F906
:1011E0008DF800009DF8000001284DD10020050079
:1011F000FF2D49D801A8285C3A2843D12E00FF2EA4
:101200003FD801A8305C282839D101A83018C0780F
:10121000222834D12078212101FB0040002180F8D0
:1012200021103700FF2F27D82078212101FB004013
:101230002178212202FB014191F82110081801A90F
:101240007918C97841702078212101FB004021786C
:10125000212202FB014191F82110491C80F8211044
:1012600001A83818C078222804D101A838180079BC
:101270002C2801D07F1CD5E72078401C2070761CDC
:10128000BDE701E06D1CB3E72078002801D0002005
:1012900000E0012041B0BDE8F08F00008CD10200D9
:1012A000F0B5C1B000F05EFD0B21DFF8240600F0C0
:1012B0000EFD4FF48075002600AF32002900380083
:1012C00000F036FF4FF480721E2100A8FFF79AF855
:1012D0000400E4B2012C01D1002000E0012041B063
:1012E000F0BD00000FB4F0B5C1B000F03BFD0C2123
:1012F000DFF8E00500F0EBFC9DF8381146A800F09F
:10130000E6FC0221D4A000F0E2FC4FF48075002638
:1013100000AF32002900380000F00AFF4FF480725D
:10132000642100A8FFF76EF80400E4B2012C01D19B
:10133000002000E0012041B0F0BC5DF814FB00008B
:10134000D8D002002DE9F041C0B000F00BFD0A2119
:10135000DFF8840500F0BBFC4FF4807600270DF128
:1013600000083A003100404600F0E2FE4FF480727F
:101370001E2100A8FFF746F80400E4B2012C0DD1AD
:1013800000200500EDB21E2D08DA00A8EDB2285CA1
:10139000222801D1002002E06D1CF3E7012040B0BB
:1013A000BDE8F0812DE9F041C0B0DFF8301500A8AC
:1013B00000F00EFF040000F0D5FCA4B2210000A84C
:1013C00000F085FC4FF4807600270DF100083A000C
:1013D0003100404600F0ACFE4FF48072142100A8AA
:1013E000FFF710F80500EDB2012D01D1002005E056
:1013F000EDB2002D01D1012000E0022040B0BDE897
:10140000F0812DE9F041C0B0DFF8D41400A800F05D
:10141000DFFE040000F0A6FCA4B2210000A800F04A
:1014200056FC4FF4807600270DF100083A00310099
:10143000404600F07DFE4FF48072142100A8FEF7B4
:10144000E1FF0500EDB2012D01D1002005E0EDB274
:10145000002D01D1012000E0022040B0BDE8F08164
:101460002DE9F041C0B0DFF87C1400A800F0B0FE18
:10147000040000F077FCA4B2210000A800F027FCD3
:101480004FF4807600270DF100083A003100404605
:1014900000F04EFE4FF48072142100A8FEF7B2FF58
:1014A0000500EDB2012D01D1002005E0EDB2002DC7
:1014B00001D1012000E0022040B0BDE8F0812DE91B
:1014C000F041C0B0DFF8201400A800F081FE040055
:1014D00000F048FCA4B2210000A800F0F8FB4FF493
:1014E000807600270DF100083A003100404600F0F8
:1014F0001FFE4FF48072142100A8FEF783FF050041
:10150000EDB2012D01D1002005E0EDB2002D01D199
:10151000012000E0022040B0BDE8F0812DE9F04359
:10152000A1B00400A4B22200DFF8C01300A800F0AC
:101530004FFE050000F016FCADB2290000A800F037
:10154000C6FB81275FF000080DF100094246390013
:10155000484600F0EDFD8122142100A8FEF752FF5D
:101560000600F6B2012E01D1002005E0F6B2002EF1
:1015700001D1012000E0022021B0BDE8F0832DE977
:10158000F04FC3B004000D00DFF8641321A800F091
:101590001FFE060000F0E6FBB6B2310021A800F005
:1015A00096FB5FF081095FF0000A0DF1840B524653
:1015B0004946584600F0BCFD8122322121A8FEF7A1
:1015C00021FF8DF800009DF8000001283AD100208D
:1015D00007000020804600200600B6B2812E2FD2E0
:1015E00021A8B6B2305C2C2804D021A8B6B2305C59
:1015F000002819D1FFB23800012802D0022807D0F4
:101600000EE04146C9B201A800F02AF8208007E0A8
:101610004146C9B201A800F023F82880002018E054
:101620007F1C0020804609E021A8B6B2305C01A9E9
:101630001FFA88F808F8010018F10108761CCCE7B9
:10164000002006E09DF80000002801D1012000E004
:10165000022043B0BDE8F08F0D0A0000E8D0020080
:1016600010B402000024200000242300DBB2C9B221
:101670008B4207D20A246043DBB29C5C303C2018CA
:101680005B1CF3E780B210BC70472DE9F34FADF55A
:10169000257D1400BDF89422964945A800F098FDD8
:1016A000050000F05FFBADB2290045A800F00FFB7C
:1016B0004FF4BD700490002003900DF58A7B039ACF
:1016C0000499584600F034FD4FF4BD721E2145A820
:1016D000FEF798FE8DF801009DF80100012840F00A
:1016E000A480002006000020070000208DF80000E4
:1016F00000200500ADB2B5F5BD7F80F08E8045A815
:10170000ADB2285C222840F07F80F6B2052E77D15A
:1017100000200190784945A8ADB2281800F000FDDE
:1017200001900198002869D045A8ADB22818C01CC6
:10173000029001980299401A20800020804620885B
:10174000082190FBF1F01FFA88F880454FDA45A890
:10175000ADB21FFA88F815EBC80108184079C0B27D
:1017600045A9ADB21FFA88F815EBC802511889795E
:1017700011EB00103038814645A8ADB21FFA88F849
:1017800015EBC8010818407AC0B245A9ADB21FFADE
:1017900088F815EBC8025118897A11EB001030381F
:1017A00082465FFA89F9B9F1410F04DB5FFA89F9E2
:1017B000B9F1370003E05FFA89F9B9F130005FFA57
:1017C0008AFABAF1410F04DB5FFA8AFABAF13701FB
:1017D00003E05FFA8AFABAF1300151EA0010A699E3
:1017E0001FFA88F808F8010018F10108A7E7A4F823
:1017F000008001208DF80000002021E001201FE082
:10180000761C0020070006E045A8ADB2285C05A9BB
:10181000BFB278547F1C6D1C6CE79DF80000012856
:1018200001D100200CE001200AE09DF80100002811
:1018300001D1012004E09DF814008DF8140002206D
:101840000DF5277DBDE8F08F64D20200F8B50400E5
:101850000D0000A90DF10200FFF791FE0600002027
:101860002880F6B2002E1CD1BDF80200002818D046
:1018700001200700BFB2BDF80000401C874210DA0B
:101880002A002100380080B2FFF7FFFE0600F6B202
:10189000002E04D1380080B2FFF740FE01E07F1C2B
:1018A000E8E7F1BDA4D10200B0D102006CD2020081
:1018B000F8D0020008D10200BCD10200F26E012073
:1018C000986E0120CE0B0020C8D10200D4D10200B6
:1018D000E0D1020018D10200ECD1020028D10200B0
:1018E000F8D1020048D0020038D1020048D10200ED
:1018F00004D2020058D1020098D1020062B38B07D3
:1019000008D0521E11F8013B00F8013B00F0248082
:101910008B07F6D1830740F0208000BF103A07D331
:1019200030B4B1E83810103AA0E83810F9D230BC21
:10193000530724BFB1E80810A0E8081044BF51F8CD
:10194000043B40F8043BD20724BF31F8022B20F8B7
:10195000022B44BF0B7803707047083A07D3B1E8F5
:101960000810083A40F8043B40F804CBF7D253077C
:10197000E4E70268531C03601170704738B5040037
:10198000A4B2002C2CD001F01FF805004A484B49A6
:10199000096891F82110085C4849096891F82210FB
:1019A00088434549454A126892F8212050544248DC
:1019B0004249096891F82110085C002808D1404884
:1019C00000783E49096891F8231088433C49087023
:1019D0003A4800688483280000F0FAFF01F0E9FA31
:1019E00031BD2DE9F84304000D0016001F00E4B2DC
:1019F000002C08D1EDB2002D05D1F6B2002E02D197
:101A0000BFB2002F48D0EDB23C2D01DB512044E0A5
:101A1000F6B23C2E01DB52203FE0BFB2B7F57A7F31
:101A200001DB532039E0E4B24FF46160EDB23C21B8
:101A300001FB05F100FB0410F6B230184FF47A7187
:101A4000BFB24FF47A7202FB07F24FF47A73B2FB23
:101A5000F3F201FB002080465FEA184081465FF404
:101A600080314046B0FBF1F808FB1108404680B2D7
:101A7000FFF784FF1FFA89F9B9F1000F0AD04FF47C
:101A80000040FFF77BFF4FF40040FFF777FFB9F10D
:101A90000109EFE7002000E05420BDE8F28338B5EB
:101AA00000F092FF0400074800680500200000F0E5
:101AB0008FFF280032BD0000C06E0120C86E0120DB
:101AC000FC6E0120E06E012089B2074AC0B22423D7
:101AD00003FB00221161704789B2034AC0B224237C
:101AE00003FB0022516170470060004038B50400DC
:101AF0000D00290089B22000C0B2FFF7E5FF31BD1B
:101B000038B504000D00290089B22000C0B2FFF7EB
:101B1000E3FF31BD80B50020009000230422102196
:101B2000022001F089FB00200090002304221021F4
:101B3000012001F081FB00F009F800F00DF801BD73
:101B400080B510210120FFF7D1FF01BD80B5102124
:101B50000120FFF7D5FF01BD80B510210220FFF75E
:101B6000CFFF01BD80B5FFF7F7FF01BD10B584B011
:101B70000400DFF87C0501F01FFCDFF8780501F0B8
:101B80001BFC012001F0FAFC05220021012001F0DC
:101B900023FD0520029001940020009000230522DF
:101BA0004FF48051012001F094FE012001F0EFFF7D
:101BB0000FF2A5020421012001F0BCFF0421012045
:101BC00002F04FF81FBD70B504000D004FF4007116
:101BD000DFF81C0501F041FCD0F50070ADB2A84261
:101BE00001D2012010E000200600B6B2ADB2AE4234
:101BF00009D24FF40072B6B23119DFF8F40401F0E3
:101C0000E2FB761CF1E7002070BD80B5DFF8E00450
:101C100001F01BFC00280CD14FF4007200A9DFF882
:101C2000D00401F0F1FB012200A9012001F0F8FE2F
:101C3000ECE701BD80B5DFF8BC0401F006FC02BD95
:101C400080B54FF4007200A9DFF8A80401F0DCFBB6
:101C50009DF8000002BD000080B5012200A901200E
:101C600001F023FF4FF4007200A9DFF8880401F0AF
:101C7000AAFB01BD10B584B00400DFF87C0401F0BC
:101C80009BFBDFF8780401F097FB022001F076FC63
:101C900005220021022001F09FFC05200290019402
:101CA00000200090002305224FF48051022001F013
:101CB00010FE022001F06BFF0FF28D0204210220C2
:101CC00001F038FF0421022001F0CBFF1FBD38B521
:101CD00004000D002A002100022001F0A1FE31BD08
:101CE00070B504000D004FF40071DFF80C0401F032
:101CF000B4FBD0F50070ADB2A84201D2012010E0D3
:101D000000200600B6B2ADB2AE4209D24FF4007266
:101D1000B6B23119DFF8E00301F055FB761CF1E7AC
:101D2000002070BD80B5DFF8D40301F08EFB02BD4A
:101D300080B54FF4007200A9DFF8C00301F064FB26
:101D40009DF8000002BD000080B5012200A902201C
:101D500001F0ABFE4FF4007200A9DFF8A00301F020
:101D600032FB01BD10B5FFF7DDFF002803D1FFF7FF
:101D7000DFFF0400F7E710BD10B584B00400DFF802
:101D8000800301F019FBDFF87C0301F015FB032051
:101D900001F0F4FB05220221032001F01DFC0520C7
:101DA0000290019400200090002305224FF48051FE
:101DB000032001F08EFD032001F0E9FE0FF2B902CD
:101DC0000421032001F0B6FE0421032001F049FFA5
:101DD0001FBD70B504000D004FF40071DFF8200343
:101DE00001F03BFBD0F50070ADB2A84201D201205A
:101DF00010E000200600B6B2ADB2AE4209D24FF4F8
:101E00000072B6B23119DFF8F80201F0DCFA761C84
:101E1000F1E7002070BD80B5DFF8E40201F015FBAA
:101E200000280CD14FF4007200A9DFF8D40201F0B1
:101E3000EBFA012200A9032001F0F2FDECE701BD5D
:101E400080B5DFF8C00201F000FB02BD80B54FF4A1
:101E5000007200A9DFF8AC0201F0D6FA9DF800008C
:101E600002BD10B5FFF7ECFF002803D1FFF7EEFF2E
:101E70000400F7E710BD000080B5012200A903208F
:101E800001F013FE4FF4007200A99E4801F09BFA86
:101E900001BD10B584B004009B4801F08DFA9B4849
:101EA00001F08AFA042001F069FB052203210420D5
:101EB00001F092FB05200290019400200090002385
:101EC00005224FF48051042001F003FD042001F0AD
:101ED0005EFE0FF26D020421042001F02BFE0421AE
:101EE000042001F0BEFE1FBD38B504000D002A001D
:101EF0002100042001F094FD31BD80B5824801F03D
:101F0000A4FA00280BD14FF4007200A97E4801F01A
:101F10007BFA012200A9042001F082FDEEE701BD59
:101F200080B57A4801F091FA02BD80B54FF4007295
:101F300000A9764801F068FA9DF8000002BD000093
:101F400080B5012200A9042001F0AFFD4FF400721A
:101F500000A96E4801F037FA01BD10B5FFF7E0FFA8
:101F6000002803D1FFF7E1FF0400F7E710BD10B52B
:101F700084B00400664801F01FFA664801F01CFABC
:101F8000052001F0FBFA05220021052001F024FBC9
:101F900005200290019400200090002305224FF4B8
:101FA0008051052001F095FC052001F0F0FD0FF2B5
:101FB0006D020421052001F0BDFD0421052001F082
:101FC00050FE1FBD38B504000D002A002100052079
:101FD00001F026FD31BD80B54D4801F036FA0028EC
:101FE0000BD14FF4007200A9494801F00DFA01220B
:101FF00000A9052001F014FDEEE701BD80B54548BC
:1020000001F023FA02BD80B54FF4007200A94148E7
:1020100001F0FAF99DF8000002BD000080B5012230
:1020200000A9052001F041FD4FF4007200A93948D4
:1020300001F0C9F901BD10B584B00400364801F0C3
:10204000BBF9364801F0B8F9062001F097FA0522ED
:102050000021062001F0C0FA052002900194002022
:102060000090002305224FF48051062001F031FC3E
:10207000062001F08CFD0FF25D020421062001F024
:1020800059FD0421062001F0ECFD1FBD80B522485A
:1020900001F0DBF900280BD14FF4007200A91E48B3
:1020A00001F0B2F9012200A9062001F0B9FCEEE727
:1020B00001BD80B5194801F0C8F902BD80B54FF4E3
:1020C000007200A9154801F09FF99DF8000002BDBB
:1020D0000000000080B5012200A9062001F0E5FC07
:1020E0004FF4007200A90D4801F06DF901BD000028
:1020F0006C4501207847012084490120904B012044
:102100009C4D0120A84F0120B4510120C053012053
:10211000CC550120D8570120E4590120F05B012063
:1021200038B504000D002900200001F0EFFF32BD9A
:1021300062F30F2262F31F42401810F0030308D02D
:10214000C91A1FD3DB0748BF00F8012D28BF20F8AC
:10215000022D130030B414461546103928BF20E96B
:102160003C00FAD8490728BF20E90C0048BF40F8D6
:10217000042D890028BF20F8022D48BF00F8012D4A
:1021800030BC7047C91818BF00F8012DCB0728BF15
:1021900000F8012D7047000000F10103810704D011
:1021A00010F8011B89B18107FAD10268B2F101313F
:1021B000914311F0803F04BF50F8042FF6E710F868
:1021C000011B11B110F8011BFBE7C01A704700009A
:1021D0000CB41CB5044604A801900A46009401AB57
:1021E00000A907487844183001F0B2FF009A002196
:1021F000117000285CBF0098001B16BC5DF80CFB3A
:1022000073F7FFFF70B504003E480078002801D046
:1022100000201CE000F0D8FB05003B4800680600E9
:1022200039480068002804D03748006840683649BB
:102230000860280000F0CCFB002E07D00120307091
:10224000002070807460300000F01CFE300070BD13
:102250002DE9F04104000D0016002A4800780028FE
:1022600003D002203070002049E000F0ADFB0700F1
:1022700060688046B8F1000F08D000206060380028
:1022800000F0A6FB00203070404638E01F48006890
:10229000807F50F002001D49096888771B4800685C
:1022A0008583200000F071FD380000F091FB00F004
:1022B00080FE00F089FB0700144800680069804632
:1022C000B8F1000F12D00020104909680861002001
:1022D0000E490968887700200C490968C8603800F1
:1022E00000F076FB00203070404608E0200000F04F
:1022F00099FD380000F06CFB0A2030700020BDE82A
:10230000F0810000F76E0120B06E0120C86E012040
:1023100070B504000D0000F057FB0600607800283F
:102320000BD002222900200000F0BDFC300000F09C
:102330004FFB00F03EFE00200CE06068002804D057
:10234000300000F045FB142004E06560300000F030
:102350003FFB002070BD000062B67047704780B53B
:1023600001F098FFFFF7F8FF00F08AFB0423DFF885
:10237000D82500210FF20D0001F0A2FF00F0F0FBC4
:1023800001BD000010B5040002F001F94FF47A71AC
:10239000B0FBF1F002F00AF900F017FC00F058F879
:1023A00002F018F90022DFF8A4154FF4304002F0D3
:1023B00032F90022DFF898154AF2020002F02BF9F8
:1023C0000022DFF890154AF2030002F024F90022FF
:1023D000DFF884154AF2010002F01DF90022DFF84F
:1023E0007C154AF2040002F016F90022DFF86015AD
:1023F0004FF4204002F00FF90022DFF864154AF292
:10240000050002F008F902F090FA002002F064FFE3
:10241000082002F0C9FF082002F0D9FF0E21002099
:1024200003F042F8002003F080F803F093F84FF433
:102430007A70FFF7A3FA03F097F802F0FEFB02F0C0
:1024400029FC082002F0D1FF002003F06EF8EEE72F
:1024500080B50523DFF80C2500210FF2D50001F02F
:102460002FFF0623DFF8002500210FF2091001F0ED
:1024700027FF0723DFF8F42400210FF2092001F0E1
:102480001FFF0823DFF8E82400210FF2812001F06C
:1024900017FF0923DFF8DC2400210FF21D3001F0C3
:1024A0000FFF0A23DFF8D02400210FF28D3001F056
:1024B00007FF0B23DFF8C42400210FF2E53001F001
:1024C000FFFE0C23DFF8B82400210FF2FD3001F0ED
:1024D000F7FE1623DFF8AC2400210FF2114001F0C3
:1024E000EFFE1823DFF8A02400210FF2214001F0B5
:1024F000E7FE0020FFF786FEDFF89014086000205A
:10250000FFF780FEDFF8881408600020FFF77AFEEE
:10251000DFF8801408600020FFF774FEDFF87814FD
:1025200008600020FFF76EFEDFF87014086001BD40
:1025300010B5C2B0040003F0A3F801A803F03AFDFF
:10254000FFF778FB002810D1FFF77AFB8DF8000029
:10255000DFF84C04006844F620618842F0D2012282
:1025600000A901A803F02CFDEAE71420FFF706FA02
:10257000E6E7000030B5ADF5437D04000020FEF72E
:1025800030FD0020FDF710FF5FF4E130FFF772FB34
:1025900043A802F0ECF8DFF80C0402F070F8DFF862
:1025A000040401784AF2010002F094F8DFF8F40321
:1025B00001784AF2050002F08DF8FDF7F9FE0020DF
:1025C000FDF742FDFEF77BFF0120FEF70AFDFEF757
:1025D00004FD002803D10A20FFF7D0F9F7E7002017
:1025E000FEF7FFFC01200500FEF748FCEDB2002DD0
:1025F00027D04FF4807202A903A8FEF7D9FC002867
:1026000016D10120FDF7D0FEBDF80800FF2801D843
:1026100000200500E4480190E248007800904FF463
:102620008073BDF8082003A943A802F0A6F8DDE7EF
:102630000020FDF7B9FE0B20FDF706FD0020050088
:10264000D4E702A903A8FFF701F9D7480190D548BC
:10265000007800904FF48073BDF8082003A943A8C8
:1026600002F08BF84FF4FA60FEF7DFFB4FF47A705C
:10267000FFF784F90120FEF7B4FC47F23050FFF772
:102680007DF9A4E73EB5040003F074FDC74802F0ED
:102690006EF802A801F0F3FF9DF808104AF202005C
:1026A00002F018F89DF808104FF4204002F012F8DC
:1026B0009DF808104AF2030002F00CF80020050013
:1026C000FFF7BEFB002813D1FFF7C0FB8DF8090010
:1026D000B74801909DF8080000904FF480730122E4
:1026E0000DF10901B14802F048F800200500E7E7C4
:1026F0006420FFF743F96D1CADB2152DE0DB00201F
:102700000500AA4802F033F8DAE7000030B5ADF56D
:10271000057D04005FF4E130FFF7BBFB03F05CFED6
:1027200044A802F024F80DF1090001F0A8FF9DF87B
:1027300009104AF2010001F0CDFF03A804F06CF883
:1027400000208DF80C000020ADF80D0000200500E1
:10275000FFF7E6FB00280BD1FFF7E7FB8DF8080039
:10276000012202A903A803F0A7FE00200500EFE75D
:1027700003F090FF002810D103F091FF8DF80800BE
:102780008C4801909DF8090000904FF4807301225D
:1027900002A944A801F0F1FFEAE71420FFF7EEF8E0
:1027A0006D1CB5F5FA7FD3D944A801F0E0FF03A86A
:1027B00004F032F8CCE7000010B5ADF5826D0400EE
:1027C0004FF41650FFF7D3FB84A801F0D0FF0DF1B2
:1027D000090001F054FF9DF809104AF2010001F0D0
:1027E00079FF03A804F03EFBFFF708FC002809D19D
:1027F000FFF709FC8DF80800012202A903A804F0E4
:1028000037FBF1E704F069FB002810D104F06AFB04
:102810008DF80800684801909DF8090000904FF479
:102820008073012202A984A801F0A7FFEAE714201F
:10283000FFF7A4F8D8E7000010B5CCB004005FF4AF
:10284000E130FFF7F8FB03A801F091FF02A801F0C7
:1028500016FF9DF808104FF4304001F03BFF9DF843
:1028600008104AF2040001F035FFFFF722FC0028AF
:1028700011D1FFF723FC8DF80900504801909DF815
:10288000080000904FF4907301220DF1090103A894
:1028900001F073FFE9E71420FFF770F8E5E70000A7
:1028A00010B504004FF4FA60FFF768F84448006878
:1028B000401C434908604248006802F01CFA4FF48B
:1028C0007A70FFF75BF8F1E738B5040002F053FCCB
:1028D0004EF66020FFF752F86D1C280002F029FA2E
:1028E0004FF47A70FFF74AF8F6E7000010B50400DD
:1028F000FFF78BF9FFF78FFAFFF7FFFAFFF76BFB94
:10290000FFF7C4FB0520FFF739F8F1E710B5040025
:102910000A23002200210020FFF763F8F8E780B5C2
:10292000062001F028FD1F48007801F0C4FE0020B9
:10293000FEF757FB0020FDF737FD06230A4A00216A
:10294000204801F0BDFC01BDA4FC0020C5B602007A
:1029500051BD020059C902007D8402003DC302003E
:10296000E9CD0200A4040120A4E40020A40C01206D
:10297000A4140120A41C0120A4240120A42C0120C3
:10298000A4340120A43C0120A4F40020906E012076
:10299000946E0120986E01209C6E0120A06E012093
:1029A00000000100F46E0120D55102001C660120D8
:1029B000D31D0200A7670200656A0200BD20020065
:1029C0000073012075250200EFF3108072B6704786
:1029D00080F3108870471F48FF210170002080F3AA
:1029E00009881D48012101701C481D49016062B61B
:1029F000FEE71A481A4901607047184818490160F3
:102A0000704772B6EFF3098028B1203880E8F00FE4
:102A100014490968086000B5134880475DF804EB65
:102A2000124813490A7802700E4812490A68026077
:102A3000106890E8F00F203080F309884EF0040E03
:102A400062B670474FF0010080F313880A480B49C3
:102A50000160FEE722ED00E0FD6E012004ED00E0E4
:102A600000000010C86E012029700200FA6E0120DB
:102A7000FB6E0120D06E01200CED00E00400FA0591
:102A800080B504F07BFA00F02BFA00F03FFA00F07A
:102A90006BFA00F009FA04F0D5FA04F00BFB04F02D
:102AA00035FB00F04FFA00F056FA04F068FA01BD69
:102AB00010B5DFF8F4060078012850D1FFF784FF45
:102AC0000400DFF8E8060078002806D0DFF8DC060E
:102AD0000078401EDFF8D4160870DFF8D0060078C2
:102AE000002839D1DFF8C8060078002834D1DFF893
:102AF000C406DFF8C4160978085CDFF8C016087051
:102B0000DFF8B8060078DFF8AC16DFF8B426DFF897
:102B1000AC361B789A5C515C11EBC000DFF8A41650
:102B20000870DFF8A0060078DFF89C160978884264
:102B300012D0DFF89806DFF88C16097850F82100DB
:102B4000DFF88C160860DFF88C060068401CDFF8A0
:102B500084160860FFF751FF2000FFF739FF10BD12
:102B600038B5DFF84406007800282DD1DFF8440698
:102B7000DFF844160978085C0400DFF83806DFF84F
:102B80004016E4B2615C085C0500E4B2EDB215EBFE
:102B9000C400DFF830160870DFF828060078DFF888
:102BA00028160870DFF82406DFF81816097850F8A0
:102BB0002100DFF81C160860DFF814060068DFF853
:102BC00018160860FFF707FF31BD10B50220FEF7A9
:102BD000D5FEFFF7F9FE04000020DFF800160860BC
:102BE0002000FFF7F5FE4FF47A70FEF7C7FEFFF7FF
:102BF000EBFE0400DFF8E4050068DFF8E415086088
:102C00000120DFF8E01508702000FFF7E1FE10BD9D
:102C100038B504F013FAFFF7D7FE0400DFF8C80553
:102C20000068401CDFF8C01508602000FFF7D0FEE8
:102C3000DFF874050078012833D1DFF8B0050068AB
:102C40000500E87F1E282CD0FFF7BEFE0400A88BED
:102C5000002821D0A88B401EA883A88B00281BD158
:102C6000A87F000716D4DFF85005007895F82310E8
:102C70000843DFF844150870DFF8440595F8211083
:102C8000085C95F822100843DFF8341595F82120E8
:102C9000505401E00120A8836D682000FFF798FEE2
:102CA000CFE731BD70472DE9F0410300DFF804E5BF
:102CB00093F8018018F80EE07646DFF834E5F6B2B6
:102CC00016F80EE0F446DFF8ECE4F6B216EB030873
:102CD00098F8088018F80EE07546DFF814E5EDB2B4
:102CE00015F80EE07746F6B2EDB215EBC60E70465B
:102CF000F6B216EB030E9EF808E03EEA070EF6B2B7
:102D000016EB030888F808E0F6B216EB030E9EF8FF
:102D100008E0BEF1000F05D193F801E03EEA0C0E89
:102D200083F801E0DFF8A4E4C0B25EF820E0744666
:102D30005FF0000EA4F81CE05FF0000EC4F80CE099
:102D4000216194F81EE03EEA020E84F81EE094F839
:102D50001EE0BEF1000F15D1DFF85CE49EF800E044
:102D60005CEA0E0EDFF8508488F800E0DFF850E4EB
:102D7000F6B216F80EE057EA0E0EDFF84484F6B20B
:102D800006F808E0C0B2BDE8F081DFF84C1409682D
:102D9000C860DFF82C14DFF84024126892F8212074
:102DA000515CDFF83424126892F822209143DFF856
:102DB0001024DFF824341B6893F821309954DFF88D
:102DC0000014DFF81424126892F82120515C0029C5
:102DD0000BD1DFF8E4130978DFF8FC23126892F8CE
:102DE00023209143DFF8D0231170DFF8EC1309683A
:102DF00091F821100918097ADFF8DC23126892F89B
:102E000022201143DFF8D023126892F821201218F3
:102E100011724178DFF8C023126892F82320114321
:102E200041707047DFF8B013096891F82110091854
:102E3000097ADFF8A423126892F822209143DFF880
:102E40009823126892F8212012181172DFF8881363
:102E5000096891F821100918097A002907D14178E9
:102E6000DFF87423126892F8232091434170002107
:102E7000DFF86423126891770021DFF85C23126881
:102E8000D16070470022427010F108021100002248
:102E90000A70491C00220A70491C00220A70491C51
:102EA00000220A70491C704710B4DFF8483319003B
:102EB000DFF844331A000023180080B2132806D22A
:102EC00000230B704A600C310C32401CF5E70023E4
:102ED0000B7000234B60C74BC84C236010BC70477D
:102EE0000020C14908600020B04908700020B049A6
:102EF00008700020C24908700020AB49087000200B
:102F0000B44908600020B549086070470022AA4B08
:102F10001A70AB4A10000022110089B2042904D2B1
:102F200000220270401C491CF7E70022A64B1A70D1
:102F30000022A44B1A700022A54B1A600022A64B57
:102F40001A60704780B51E23AE4A00210FF2C900F7
:102F500001F0B6F901BD80B51D23AB4A00210FF287
:102F6000D90001F0ADF901BD10B400239F4C2360DE
:102F700000231800C0B21F2806D20023934CC0B211
:102F800044F82030401CF5E7A04B1900A04B1A0074
:102F900000231800C0B2102804D24A602831283219
:102FA000401CF7E700234B60984B9A4C236010BC01
:102FB000704738B5FFF708FD04007C48007800280A
:102FC00026D17B480078002822D17A487A490978AE
:102FD000085C0500EDB277487949EDB2695C085CA0
:102FE00010EBC50077490870764800787649097873
:102FF00088420DD075487349097850F8210074490A
:10300000086074480068401C72490860FFF7F1FCD2
:103010002000FFF7DDFC31BD38B50400FFF7D4FC1C
:1030200005006E480068401C6C4908602800FFF7E6
:10303000CFFC03F0B1FFF1E72DE9F041804669488C
:103040000078002804D14FF4FA60FEF797FCF6E709
:10305000634800686421B0FBF1F00600FFF7B4FCA0
:1030600004005E4800686C4908605C480068050020
:1030700000205A4908602000FFF7AAFC002E0ED05D
:10308000B5FBF6F0D0F1640007007FB2002F02D448
:10309000624807700CE000206049087008E00020DA
:1030A0005E4908704E4800686421B0FBF1F00600EC
:1030B00003F076FF4FF47A70FEF760FCCEE72DE95F
:1030C000F84F05000E0092469B46DDF82890DDF88B
:1030D0002C800C9CFFF778FC00904E48006807009D
:1030E000002F5AD078684B4908600098FFF770FCB1
:1030F0003E60FD770020B8770020B883002087F875
:103100002400EDB2E80887F82100394897F821102B
:10311000085C87F8230015F0070087F82000344882
:1031200097F82010085C87F822000020F860002043
:10313000786100203861380003F07AFF380003F02E
:103140001FFFFFF741FC00902048EDB240F82570CA
:103150002648006878600020B8602448006800288D
:1031600002D0224800688760204807601248007833
:1031700097F82310084310490870114897F8211058
:10318000085C97F8221008430D4997F82120505405
:103190000098FFF71DFC002003E00098FFF718FCE3
:1031A0004620BDE8F28F0000FD6E0120F76E012081
:1031B000F96E0120E8CC0200FC6E0120F86E0120BF
:1031C000C06E0120FB6E0120FA6E0120886B012089
:1031D000D06E0120AC6E0120C86E0120C46E0120AB
:1031E000B86E0120F66E0120E06E0120D46E012041
:1031F00074D20200106A01201C6A0120B06E012006
:10320000FE6E0120F8610120F85F0120B44001202A
:10321000DC400120CC6E0120BC6E0120F56E012047
:103220005F48006870475F490860704780B503F0E9
:103230008FFF00F02FF801BDF8B504000D00160057
:103240001F003200D2B2290089B22000C0B203F0C0
:1032500085FF3900C9B22000C0B203F0BFFFF1BD45
:1032600030B489B2FF2905DC4F4C0D00EDB22C5D66
:10327000230006E04C4C89B20D12EDB22C5D0834EF
:103280002300DBB2102B03D2484CDBB244F82320DE
:1032900030BC704710B500200400102C09D2444AFD
:1032A000012010FA04F189B20020FFF7D9FF641C55
:1032B000F3E70FF21D011B2003F0D9FF0FF2790194
:1032C000112003F0D4FF00203A49086010BD00002F
:1032D00070B5FFF7A5FF06003000FFF7A4FF4AF620
:1032E000AA2006403348006806403000C0B20028DB
:1032F0000DD02D483100C9B2085C05002B4850F8AC
:1033000025000400A0470120A8408643EDE7300ACD
:10331000C0B200280ED02448310AC9B2085C083077
:103320000500224850F825000400A0470120A840CD
:103330008643ECE770BD000070B5FFF771FF060033
:103340003000FFF770FF45F25550064019480068FD
:1033500006403000C0B200280DD013483100C9B279
:10336000085C0500114850F825000400A047012022
:10337000A8408643EDE7300AC0B200280ED00A48C4
:10338000310AC9B2085C08300500084850F8250029
:103390000400A0470120A8408643ECE770BD000070
:1033A000146100401C610040E8CB0200946D0120D4
:1033B00095720200886E01200021016000214160A9
:1033C00002218160704730B403009868012801D160
:1033D000012017E013F10C005D682818040008783C
:1033E00020705868401CB0FBF2F502FB15005860D5
:1033F00058681D68A84202D10120986001E00320AE
:103400009860002030BC704730B4030098680228F0
:1034100001D1022017E013F10C001D6828180400E8
:10342000207808701868401CB0FBF2F502FB15000C
:10343000186058681D68A84202D10220986001E017
:1034400003209860002030BC704701008868022883
:1034500001D1012000E00020704710B40200536841
:103460001468A34205D25368CB1814681B1B1800BC
:103470000FE053681468A34207D19368012B01D170
:10348000080006E00023180003E0536814681B1BC3
:10349000180010BC704700000100CA6852F4806236
:1034A000CA6070470100CA6852F40062CA6070477F
:1034B00001000800006CC004C00C70470200936C4F
:1034C0000B43936470470200D36C0B43D364704783
:1034D0000200536D33F4E0635365536D09B20B433F
:1034E000536570470100CA6852F48062CA60704731
:1034F0000100CA6852F40062CA6070470100080007
:10350000006CC004C00C70470200936C0B439364C2
:1035100070470200D36C0B43D36470470200536DB5
:1035200033F4E0635365536D09B20B435365704741
:1035300001004A6852F040024A60704701004A6840
:1035400052F080024A60704701000800C06A4005DE
:10355000400D70470200536B0B43536370470200EA
:10356000936B0B43936370470200536D33F44073C6
:103570005365536D09B20B435365704710B5040092
:10358000DFF81C0AE4B2502101FB04000079002896
:1035900003D0022815D00AD31DE0DFF8040AE4B2F4
:1035A000502101FB0400006803F004FF13E0DFF882
:1035B000F009E4B2502101FB0400006804F03AF87D
:1035C00009E0DFF8DC09E4B2502101FB04000068E7
:1035D00004F061F9FFE710BDF8B504000D00160016
:1035E000DFF8BC09E4B2502101FB04000079002897
:1035F00003D002282DD016D341E0DFF8A409E4B2AD
:10360000502101FB0400EDB20C2101FB0500016912
:1036100009B2DFF88C09E4B2502202FB0400006812
:10362000FFF756FF2BE0DFF87809E4B2502101FBE9
:103630000400EDB20C2101FB0500016909B2DFF8BD
:103640006009E4B2502202FB04000068FFF766FF45
:1036500015E0DFF84C09E4B2502101FB0400EDB2A3
:103660000C2101FB0500016909B2DFF83409E4B25D
:10367000502202FB04000068FFF776FFFFE7F6B276
:103680003000012805D004284BD0052800F0918097
:103690001EE10020009000230422DFF80409E4B2B8
:1036A000502101FB0400EDB20C2101FB0500418912
:1036B000DFF8EC08E4B2502707FB0400EDB20C275A
:1036C00007FB0500007AFFF7B7FDDFF8D408E4B286
:1036D000502101FB04000079002803D0022815D0F6
:1036E0000AD31DE0DFF8B808E4B2502101FB040062
:1036F0000068FFF7D1FE13E0DFF8A408E4B2502120
:1037000001FB04000068FFF7EDFE09E0DFF8900818
:10371000E4B2502101FB04000068FFF709FFFFE756
:10372000D6E00020009000230122DFF87408E4B204
:10373000502101FB0400EDB20C2101FB0500818941
:10374000DFF85C08E4B2502707FB0400EDB20C2759
:1037500007FB0500407AFFF76FFDDFF84408E4B28D
:10376000502101FB04000079002803D0022815D065
:103770000AD31DE0DFF82808E4B2502101FB040061
:103780000068FFF78FFE13E0DFF81408E4B2502161
:1037900001FB04000068FFF7ABFE09E0DFF800085A
:1037A000E4B2502101FB04000068FFF7C7FEFFE709
:1037B0008EE00020009000230422DFF8E407E4B24A
:1037C000502101FB0400EDB20C2101FB05004189F1
:1037D000DFF8CC07E4B2502707FB0400EDB20C275A
:1037E00007FB0500007AFFF727FD0020009000236B
:1037F0000122DFF8AC07E4B2502101FB0400EDB276
:103800000C2101FB05008189DFF89407E4B2502701
:1038100007FB0400EDB20C2707FB0500407AFFF719
:103820000BFDDFF87C07E4B2502101FB04000079B6
:10383000002803D0022815D00AD31DE0DFF8600766
:10384000E4B2502101FB04000068FFF725FE13E0FD
:10385000DFF84C07E4B2502101FB04000068FFF7D9
:1038600041FE09E0DFF83807E4B2502101FB040013
:103870000068FFF75DFEFFE7DFF82407E4B25021A0
:1038800001FB04000079002803D0022815D00AD3D8
:103890001DE0DFF80C07E4B2502101FB04000068D2
:1038A000FFF700FE13E0DFF8F806E4B2502101FB59
:1038B00004000068FFF71CFE09E0DFF8E406E4B24C
:1038C000502101FB04000068FFF738FEFFE7FFE727
:1038D000F1BD2DE9F84305000E0017009846DDF80C
:1038E00024900A9CDFF81008EDB2502101FB05007E
:1038F0000079002803D0022861D030D38EE0330055
:103900001BB2424612B23900C9B2DFF8EC07EDB281
:103910005FF0500C0CFB0500006803F0D1FD0022A5
:103920004946DFF8D407EDB2502303FB05000068D9
:1039300003F062FD2100C9B2DFF8BC07EDB25022EE
:1039400002FB0500006803F0D4FDDFF8AC07EDB220
:10395000502101FB0500006803F085FD5EE03300A7
:103960001BB2424612B23900C9B2DFF88C07EDB281
:103970005FF0500C0CFB0500006803F0D9FE00223C
:103980004946DFF87407EDB2502303FB05000068D9
:1039900003F06AFE2100C9B2DFF85C07EDB25022E5
:1039A00002FB0500006803F0DCFEDFF84C07EDB217
:1039B000502101FB0500006803F08DFE2EE033006E
:1039C000DBB24246D2B23900C9B2DFF82C07EDB201
:1039D0005FF0500C0CFB0500006803F0B9FF49468E
:1039E000DFF81407EDB2502202FB0500006803F077
:1039F00065FF2100C9B2DFF80007EDB2502202FBDB
:103A00000500006803F0B9FFDFF8EC06EDB25021C5
:103A100001FB0500006803F070FFFFE7BDE8F183DC
:103A2000F8B504000D001600DFF8CC06E4B2502112
:103A300001FB04000079002803D0022823D011D311
:103A400032E000200700B7420BD2795DDFF8A8060C
:103A5000E4B2502202FB0400006803F069FD7F1C01
:103A6000F1E721E000200700B7420BD2795DDFF8D3
:103A70008806E4B2502202FB0400006803F090FEC6
:103A80007F1CF1E710E000200700B7420BD2795D00
:103A9000DFF86406E4B2502202FB0400006803F081
:103AA0008BFF7F1CF1E7FFE7F1BDF8B504000D00C7
:103AB0001600DFF84406E4B2502101FB040000794F
:103AC000002803D0022823D011D332E000200700C1
:103AD000B7420BD2DFF82006E4B2502101FB04000C
:103AE000006803F019FD78557F1CF1E721E0002004
:103AF0000700B7420BD2DFF80006E4B2502101FB09
:103B00000400006803F040FE78557F1CF1E710E0E8
:103B100000200700B7420BD2DFF8DC05E4B25021E9
:103B200001FB0400006803F03BFF78557F1CF1E7C0
:103B3000FFE7F1BD30B403000F20014201D10220A4
:103B400023E0DFF8B805C9B2085C0400DFF8B0056F
:103B5000DBB230F81300C0B2084201D0012014E0FB
:103B6000DFF8A005DBB210EB0310E4B240F824202C
:103B7000DFF88C05DBB230F81300C9B20843DFF878
:103B80008055DBB225F81300002030BC704738B5F3
:103B9000040000200500EDB2042D0BD2DFF86825EB
:103BA000012010FA05F1C9B22000C0B2FFF7C2FF30
:103BB0006D1CF0E7E4B2002C09D0022C1DD011D30B
:103BC000042C30D024D3062C3ED037D342E00FF261
:103BD0000521132003F04BFB0FF23921142003F0D1
:103BE00046FB37E00FF26D211F2003F040FB0FF280
:103BF000A521202003F03BFB2CE00FF2D92122204D
:103C000003F035FB0FF21131232003F030FB21E0EC
:103C10000FF24931242003F02AFB0FF289312520CD
:103C200003F025FB16E00FF2C131262003F01FFB45
:103C30000FF2F931272003F01AFB0BE00FF23141AC
:103C4000282003F014FB05E00FF26941292003F05E
:103C50000EFBFFE70020DFF8A814E4B221F81400FF
:103C600031BD38B504000D000F20054201D10220FE
:103C7000AEE0DFF88404E4B2502101FB04000079D7
:103C8000002803D002282FD017D344E0EDB229003A
:103C9000DFF86404E4B2502202FB04000068FFF77E
:103CA0000DFCEDB22900DFF85004E4B2502202FB13
:103CB00004000068FFF707FC2DE0EDB22900DFF8F3
:103CC0003804E4B2502202FB04000068FFF71CFC39
:103CD000EDB22900DFF82004E4B2502202FB040018
:103CE0000068FFF716FC16E0EDB22900DFF80804C3
:103CF000E4B2502202FB04000068FFF72BFCEDB297
:103D00002900DFF8F403E4B2502202FB040000684B
:103D1000FFF725FCFFE7E4B2002C09D0022C21D0EC
:103D200013D3042C38D02AD3062C49D041D34EE0EB
:103D3000C320054202D0142003F0A1FA3C20054222
:103D400002D0132003F09BFA41E0C320054202D0C9
:103D5000202003F094FA3C20054202D01F2003F0FB
:103D60008EFA34E0C320054202D0232003F087FA04
:103D70003C20054202D0222003F081FA27E0C32034
:103D8000054202D0252003F07AFA3C20054202D0F9
:103D9000242003F074FA1AE0C320054202D0272041
:103DA00003F06DFA3C20054202D0262003F067FAAA
:103DB0000DE03E20054202D0282003F060FA06E024
:103DC0003E20054202D0292003F059FAFFE70020E7
:103DD00032BD000070B572480068FFF769FB10F053
:103DE0003C000600C648008806403000C0B20028EB
:103DF0000ED0C2483100C9B2085C0500C148EDB21E
:103E000050F825000400A0470120A8408643ECE7B5
:103E100070BD000070B562480068FFF749FB10F004
:103E2000C3000600B648008806403000C0B2002833
:103E30000ED0B2483100C9B2085C0500B148EDB2FD
:103E400050F825000400A0470120A8408643ECE775
:103E500070BD000070B55248006DFFF729FB10F0EF
:103E60003C000600A648408806403000C0B200284A
:103E70000FD0A2483100C9B2085C0500A148EDB2DC
:103E800010EB850000690400A0470120A84086438C
:103E9000EBE770BD70B54248006DFFF709FB10F00D
:103EA000C30006009648408806403000C0B2002893
:103EB0000FD092483100C9B2085C05009148EDB2BC
:103EC00010EB850000690400A0470120A84086434C
:103ED000EBE770BD70B53248D0F8A000FFF7E8FA04
:103EE00010F03C0006008648808806403000C0B2D2
:103EF00000280FD081483100C9B2085C0500814814
:103F0000EDB210EB8500006A0400A0470120A84034
:103F10008643EBE770BD000070B52148D0F8A000E3
:103F2000FFF7C6FA10F0C300060075488088064007
:103F30003000C0B200280FD070483100C9B2085C10
:103F400005007048EDB210EB8500006A0400A04740
:103F50000120A8408643EBE770BD000070B5104813
:103F6000D0F8F000FFF7CAFA10F03C0006006448F1
:103F7000C08806403000C0B200280FD05F48310032
:103F8000C9B2085C05005F48EDB210EB8500006B1C
:103F90000400A0470120A8408643EBE770BD000065
:103FA00028C7020070B55448D0F8F000FFF7A6FA11
:103FB00010F0C30006005248C08806403000C0B26E
:103FC00000280FD04D483100C9B2085C05004D48AB
:103FD000EDB210EB8500006B0400A0470120A84063
:103FE0008643EBE770BD000070B54348D0F8400150
:103FF000FFF784FA10F03C000600414800890640B3
:104000003000C0B200280FD03C483100C9B2085C73
:1040100005003C48EDB210EB8500006C0400A047A1
:104020000120A8408643EBE770BD000070B5324820
:10403000D0F84001FFF762FA10F0C30006003048E4
:10404000008906403000C0B200280FD02B48310054
:10405000C9B2085C05002B48EDB210EB8500006C7E
:104060000400A0470120A8408643EBE770BD000094
:1040700070B52148D0F89001FFF766FA10F01C00E7
:1040800006001F48408906403000C0B200280FD00B
:104090001A483100C9B2085C05001A48EDB210EBAD
:1040A0008500006D0400A0470120A8408643EBE78F
:1040B00070BD000070B51048D0F8E001FFF744FA79
:1040C00010F01C0006000E48808906403000C0B287
:1040D00000280FD009483100C9B2085C0500094822
:1040E000EDB210EB8500006E0400A0470120A8404F
:1040F0008643EBE770BD000028C70200E8CB020052
:10410000246E0120046C01209572020070B50C46EB
:10411000257835B970BD11F8013F1678B34206D045
:10412000401C294603F05EFC28B10146224612F8E5
:10413000013F002BEFD170BD70B504461E0008464C
:10414000154604D015F8011BA047761EFAD170BDA4
:104150002DE9F04784B08246894614461F460DF18A
:10416000000807E00123224649465046FFF7E4FFD6
:104170008146641C207810B904B0BDE8F08725287A
:10418000F0D16078A41C2528014618D058285CD0AE
:1041900063280ED0642818BF692814D06F2854D023
:1041A000702858D073285DD0752818BF78284CD057
:1041B000E0E73868386050F8041B3860C9B24846F8
:1041C000D0478146D6E73868386050F8045B3860DD
:1041D000002D03D52D214846D047814664206F2805
:1041E00008BF082205D040F02001782914BF0A2218
:1041F00010220B216428AC4603D1002D48BFCCF11E
:10420000000CBCFBF2F502FB15CC0CF1300C5FFA94
:104210008CFC4B1EBCF13A0FA4BFA0F1510EF4442C
:1042200003F808C019465FEA050C01D00129E8DA55
:1042300000A80D184846D1F10B09C2D015F8011B92
:10424000D047B9F10109F9D1BBE73968396051F8B4
:10425000045B3960C3E73868386050F8045B386045
:104260007820BCE73868386050F8045B386028462E
:10427000FDF792FF06004846A3D015F8011BD04772
:10428000761EFAD19DE700000A4A0A4002430A4B13
:104290001A60704780B503F0B1FB00F056F902F0E8
:1042A000C9FF06495FF00050FFF7EEFFFEF7BEFFC3
:1042B00001BD000080FFFF1F08ED00E000010020AD
:1042C0002DE9F04784B004000D0016001F00FEF732
:1042D0007BFB8046DFF8FC01FFB250F82700002886
:1042E00042D10120DFF8EC11FFB241F8270040462F
:1042F000FEF76EFB002332002900200002F054FE7E
:1043000081460020029000200190002000900023B0
:10431000002249463800C0B2FEF7D1FE82465FFA5D
:104320008AFABAF1000F11D1FEF74EFB80466D48B4
:104330000078401C6B4908704046FEF749FB6A480C
:10434000007801280DD1FEF734FE0AE0FEF73CFBB1
:10435000804600205F49FFB241F827004046FEF743
:1043600037FB5046C0B203E04046FEF731FB282041
:1043700004B0BDE8F0872DE9F04104005B48007807
:10438000002801D03F20A3E0FEF71EFB0500E4B2A9
:10439000FF2C03D150480068C07F04004D48E4B2B0
:1043A00050F824008046B8F1000F00F08D804B4893
:1043B00098F82110085C98F822108843474998F82B
:1043C00021205054454898F82110085C002806D157
:1043D0004348007898F82310884341490870D8F87A
:1043E0000C000600002E15D098F821008019007AE4
:1043F00098F82210884398F821108919087298F8C3
:1044000021008019007A002804D1707898F82310D0
:1044100088437070D8F814000700002F02D03800CD
:1044200002F02EFE0020A8F81C00002088F81E00D4
:104430002F480078FF2804D02D480078401C2C49D4
:1044400008702800FEF7C4FAFEF72CFCFEF7BCFA51
:10445000050027480078002804D025480078401E31
:1044600023490870404602F091FD1E480078401E26
:104470001C49087000201749E4B241F82400D8F81C
:104480000800002808D10020D8F804108860D8F867
:1044900004001849086009E0D8F80400D8F80810AA
:1044A0004860D8F80800D8F80410886012480068FE
:1044B000C8F804001048C0F800802800FEF788FA09
:1044C000FEF777FD002003E02800FEF781FA3C208C
:1044D000BDE8F081886B0120C86E0120C06E01200C
:1044E000FC6E0120FE6E0120FD6E0120F76E0120A2
:1044F000F96E0120D46E0120CC6E01200121814093
:10450000254A116025490968421C0B00D340D90790
:10451000F8D570472248006850F480702049086040
:104520007047204A12687FF0030383401A40C9B2E3
:1045300011FA00F31A431B4B1A6070471A490968B5
:10454000C0B20143184A1160704780B54FF4007043
:1045500003F007FC002003F02AFB012003F014FB0A
:1045600003210020FFF7DDFF03210220FFF7D9FF21
:10457000032003F027FB302003F02FFBFFF7CAFFD7
:104580001020FFF7DBFF0620FFF7B8FF01BD80B565
:1045900003F085FB02BD000020800C402C800C4005
:1045A00008800C4028800C4040800C40411E074A87
:1045B00011600749096851F00501054A1160044975
:1045C000096851F00201024A1160704714E000E0EE
:1045D00010E000E00020DFF80013086000200A2847
:1045E00018D24FF6FF71DFF8F4220C2303FB0022F0
:1045F00011800021DFF8E4220C2303FB002251602C
:104600000FF21531DFF8D4220C2303FB0022916056
:10461000401CE4E7704730B4030000200A280CD2A5
:10462000DFF8B8420C2505FB004424889BB29C426D
:1046300001D1042021E0401CF0E700200A281BD211
:10464000A64C0C2505FB004424884FF6FF75AC42B0
:1046500010D1A24C0C2505FB004423809F4C0C2557
:1046600005FB004462609D4C0C2505FB0040816009
:10467000002002E0401CE1E7012030BC704701004F
:1046800000200200D2B2202A11D293480068030011
:10469000D340D80709D490480068012393401843B9
:1046A0008D4B18600A70002004E0521CEAE72120BC
:1046B0000870052070470100C9B2202901D30620E7
:1046C00007E08548006801228A409043824A1060D2
:1046D0000020704730B40200C9B2202901D306205F
:1046E0001CE000200A2818D27C4B0C2404FB003369
:1046F0001B8892B293420ED1784B0C2404FB0033FA
:104700005B6801248C402343744C0C2505FB00405E
:104710004360002002E0401CE4E7042030BC704706
:1047200010B40200C9B2212901D300201DE0C9B292
:10473000202901D1012018E000200A2814D2674B5B
:104740000C2404FB00331B8892B293420AD1634BC2
:104750000C2404FB00335B681C00CC40E30701D54C
:10476000012002E0401CE8E7002010BC7047002157
:1047700001700021A0F8011070472DE9F44F0500E9
:104780000E001F000A9CDDF82C80E81C81465FF0BB
:10479000000A009882457BD21AF80600FF2808D14B
:1047A0002878002805D1012028700020A5F80100F4
:1047B00007E02878002804D02878012801D00020BC
:1047C00028702878012860D11AF80600B5F8011081
:1047D0004919C870B5F80100032809D1D9F80000BB
:1047E00003F076FB10F1010F02D0002028704CE09E
:1047F000B5F8010009281ED1B9F8040003F050FBF8
:104800008346042115F1090003F06EFB1FFA8BFBB0
:10481000834502D00020287037E0B9F8060003F085
:104820003FFB2100C9B280B2FFF77AFF002802D116
:104830000020287029E0B9F8080003F031FBB5F832
:10484000011080B20930814213D1B9F8080003F099
:1048500027FB8346B9F8060003F022FB43461FFA04
:104860008BFB5A4619F10A0180B200F013F80020C0
:104870002870B5F80100874202D20020287004E0B9
:10488000B5F80100401CA5F801001AF1010A80E703
:10489000BDE8F18F2DE9F84304000D0016001F005C
:1048A0005FF00009B9F10A0F14D20C480C2101FB8A
:1048B00009000088A4B2A04209D108480C2101FBDC
:1048C0000900806880463A0031002800C04719F18D
:1048D0000109E7E7BDE8F183E86E01200009002047
:1048E000F8B504000D0016002F005FF0FF303860AF
:1048F000200080B203F0D4FAF880300080B203F0D8
:10490000CFFA38810421A81D03F0EEFA80B203F03B
:10491000C7FAB880F1BD0000FEE7000062B670473C
:104920007047000072B67047704780B500F005F818
:1049300001BDDFF800090068704780B5DFF8F408B2
:10494000006803F0FFFA03F00DFBDFF8EC180860D5
:104950005FF0AB30DFF8E018086001BD7047DFF8AA
:10496000D8080068704770B504000A25DFF8CC68E5
:104970002A0031002000FCF7C1FF70BD10B5040013
:104980000A22DFF8B818200003F05CFB002801D1F0
:10499000012000E0002010BDDFF8A4080088704767
:1049A00013B50400FFF7BEFF03F0A0FB5FF49030E7
:1049B00003F0A7FB022201A95FF4903003F0ACFBE7
:1049C000BDF804202100DFF87C0803F0A5FB03F00C
:1049D00094FBFFF7A3FF13BD70B504000D00ADB24B
:1049E000DFF864682A0031002000FCF787FF70BD03
:1049F00070B504000D00ADB2DFF840682A00310048
:104A00002000FCF77BFF70BD10B582B004000020D1
:104A1000ADF80000FFF786FF03F068FB5FF490300D
:104A200003F06FFB022200A95FF4903003F074FBE7
:104A300003F063FBFFF772FF13BDDFF81008006897
:104A4000704701B5FFF76EFF03F050FB5FF498303D
:104A500003F057FB042200A95FF4983003F05CFBDD
:104A600003F04BFBFFF75AFF01BD70B504000425AE
:104A7000DFF8DC672A0031002000FCF73FFF70BD43
:104A800007B5FFF74FFF03F031FB5FF4A03003F0F1
:104A900038FB092200A95FF4A03003F03DFB03F0CE
:104AA0002CFBFFF73BFF07BD70B504000925DFF8BD
:104AB000A4672A0031002000FCF720FF70BDDFF85A
:104AC0009817A1F801007047DFF88C1788807047AD
:104AD000DFF88417A1F80700704701B5FFF722FF40
:104AE00003F004FB5FF4A83003F00BFB032200A9E2
:104AF0005FF4A83003F010FB03F0FFFAFFF70EFF9E
:104B000001BD70B504000325DFF850672A003100AD
:104B10002000FCF7F3FE002000F00CFC002802D17E
:104B20000120A07001E00020A07070BD01000A000B
:104B3000DFF82C379A4202D10122100011E00A005E
:104B4000DFF820379A4202D10222100009E00A0061
:104B5000DFF814379A4202D10422100001E001224A
:104B60001000C0B2704770B582B00324DFF8EC5675
:104B700000AE220029003000FCF7C0FE01208DF8B5
:104B800000000098FFF7A9FF73BD70B582B0032441
:104B9000DFF8C85600AE220029003000FCF7AEFE58
:104BA00000208DF800000098FFF797FF73BDF8B55F
:104BB00004000325DFF8A46600AF2A0031003800A6
:104BC000FCF79CFE002000F0B5FB002803D101207B
:104BD0008DF8020002E000208DF80200E4B2002C03
:104BE00007D19DF80200012806D101208DF80100AF
:104BF00002E000208DF801000098FFF76EFFF1BD84
:104C000010B5C0B0040047208DF8000050208DF88A
:104C1000010000A801F05AFA9DF8ED00412802D1E8
:104C20000120207001E000202070601C0DF10A01BD
:104C30000E22FCF763FE40B010BD70B582B00324B5
:104C4000DFF8185600AE220029003000FCF756FEAF
:104C5000002000F06FFB002803D101208DF8020036
:104C600002E000208DF802009DF80100012810D11B
:104C70009DF8020000280CD102208DF80100009858
:104C8000FFF72BFF0FF24D5301220021022000F00D
:104C900022F973BD00B5C1B047208DF8080050203F
:104CA0008DF8090002A801F011FA9DF8F5004128DD
:104CB0001DD19DF80A0010F5FA60ADF800009DF8CE
:104CC0000B008DF802009DF80C008DF803009DF894
:104CD0000D008DF804009DF80E008DF805009DF87C
:104CE0000F008DF8060000A803F0F0FA01E003F0D1
:104CF00000FB41B000BD38B5040000A8FFF701FF7C
:104D0000DFF84C0500880A2802DA0A20050003E0D3
:104D1000DFF83C05008805009DF80100002807D059
:104D20000FF2B1430222690889B2002000F0D3F8E3
:104D300031BD70B5C4B0040002A800F024FA002808
:104D400076D10020060001208DF800009DF80000BB
:104D500000286DD0761CFBF723FB01280BD1F6B29F
:104D6000032E08DA0120050001F065FB4FF47A708C
:104D7000FCF704FE09E00220050001F056FBFDF7F8
:104D8000CEFD42F21070FCF7F9FDEDB2002D08D017
:104D9000022D18D00ED3042D2FD01DD3052D35D0C4
:104DA00045E000AA9DF8081089B20DF10900FCF752
:104DB0009FF8CBE700AA9DF8081089B20DF1090011
:104DC000FCF796F8C2E700AA9DF8081089B20DF129
:104DD000090001F0C4FCB9E700AA9DF8081089B2E7
:104DE0000DF10900FCF784F800AA9DF8081089B2BB
:104DF0000DF1090001F0B3FCA8E700AA9DF8081026
:104E000089B20DF1090002F080F89FE700AA9DF831
:104E1000081089B20DF10900FCF76AF800AA9DF8A4
:104E2000081089B20DF1090002F06FF88EE78DE7E6
:104E300001A8FFF766FE9DF80500002801D101F0EA
:104E4000FAFA44B070BD30B593B004000D000CA860
:104E500003F0DEFA0EA8FFF7D3FE08A8FFF751FE15
:104E600009A8FFF721FEDFF8F003B0F80100ADF864
:104E70002500DFF8E4038088ADF82800DFF8D803C8
:104E8000B0F80700ADF82B00079509A804AA0AC8D6
:104E90000AC2036813600838083A089803900EA8FD
:104EA00081B069460CC80CC10CC80CC1103810394F
:104EB00008BCDDE90C010A0001002000C0B203F0CB
:104EC00028FD13B030BDDFF8A41308707047DFF879
:104ED0009C03007870472DE9F04FA3B004000D004B
:104EE00092469B465FFA8AFABAF1060F80F2118168
:104EF000002080465FFA88F85FFA8AFAD04580F091
:104F0000ED80002081461FFA89F9ADB2A94519D27A
:104F100004A8FFF7F6FD9DF81100002803D0FFF765
:104F2000D6FF012807D10020FFF7CDFF4FF47A709C
:104F3000FCF724FDEDE04FF47A70FCF71FFD19F14A
:104F40000109E0E75FFA88F8B8F1000F2FD10DA84A
:104F500003F05EFA0AA8FFF7A7FD002006009DF8FF
:104F60002800012801D156F001069DF82B000128E8
:104F700001D156F002069DF82E00012801D156F00D
:104F80000406E4B2002C12D10020B94981F8500087
:104F90000020B74981F85100B548A0F85250B448F4
:104FA00080F85460B3480DA90722FCF7A7FC04A8B9
:104FB000FFF7A7FD9DF811009DF8121051EA0010AF
:104FC0000FA95FFA88F85FEA0812505406A8FFF7A5
:104FD00017FE9DF818000FA95FFA88F811EB081169
:104FE00048709DF8180001282CD100200700BDF85A
:104FF0001A00A149079A01FB002007009DF819003B
:10500000532801D157F400470FA85FFA88F810EB36
:105010000810C0F8067000200700BDF8210096496E
:10502000DDF8232001FB002007009DF82000572811
:1050300001D157F400470FA85FFA88F810EB081069
:10504000C0F802700AA8FFF72FFD8348B0F80100EE
:105050000FA95FFA88F811EB081148817E48808813
:105060000A2190FBF1F00FA95FFA88F811EB081103
:10507000087305A800F0D6FA9DF815000FA95FFA8D
:1050800088F811EB081148739DF816000FA95FFA14
:1050900088F811EB081188739DF817000FA95FFAC3
:1050A00088F811EB0811C873E4B2002C13D17048D2
:1050B0005FFA88F810EB08100FA95FFA88F811EB77
:1050C00008111022FCF71AFC694890F85000401CA7
:1050D000674981F8500018F101080BE7CDF80CB0D2
:1050E0005046C0B202900FA801903000C0B20090AC
:1050F0002B009BB2DDE90D010A0001002000C0B2C7
:1051000003F0CDFCE4B2002C03D10020584981F813
:10511000500023B0BDE8F08F0020554981F85000C1
:10512000704710B586B00400514890F85000002830
:105130001FD004A84F490722FCF7E0FB03944C481A
:1051400090F8500002904A480190494890F8540065
:1051500000904748B0F85230DDE904010A00010030
:10516000434890F8510003F09AFC0020404981F830
:10517000500006B010BD80B5404803F0BDFD0020D2
:105180003F49087001BD10B5C2B004003B4803F0B0
:10519000BAFD012801D1032019E001203849087027
:1051A000C82340F2011200A9344803F0FBFD01A816
:1051B000009940F20112FCF7A1FB00203049087071
:1051C000200001A940F20112FCF798FB002042B038
:1051D00010BD00002DE9F04182B004000D00ADB219
:1051E000B5F5807F01DD012022E025480078002808
:1051F00003D00A20FCF7C2FBF7E7C8211F4803F0E1
:105200008BFD012801D1022012E0C82340F20112D7
:1052100000A91A4803F089FD009806003570377818
:1052200016F101083A0021004046FCF767FB002018
:10523000BDE8F681000001008C6E01200220010013
:1052400000200100022001000C20010000100100DC
:1052500000300100004001005C6E012000500100A0
:10526000E11C0200A7670200656A0200EE6E0120E1
:10527000386D01208D6D0120A0860100D10B00202A
:10528000D00B002089B2344AC0B2242303FB002291
:105290001161704702003048D2B2242303FB0200A0
:1052A000C06989B2084201D0012000E000207047A7
:1052B00038B504000D00290089B22000C0B2FFF704
:1052C000E1FF31BD38B504000D00290089B220008E
:1052D000C0B2FFF7DFFF32BD10B582B0040000207E
:1052E0000090002304221D48E4B230F834101B481B
:1052F000E4B210EBC4008078FDF79EFF0020009020
:10530000002301221548E4B210EBC4008188134841
:10531000E4B210EBC4008079FDF78EFF0F48E4B2D1
:1053200030F834100D48E4B210EBC4008078FFF779
:10533000BFFF13BD38B504000848E4B210EBC40049
:1053400081880648E4B210EBC4008079FFF7BAFF09
:1053500005002800C0B232BD0060004034D2020017
:1053600089B2294AC0B2242303FB0022116170478D
:1053700089B2254AC0B2242303FB00229161704701
:1053800038B504000D00290089B22000C0B2FFF733
:10539000E7FF31BD38B504000D00290089B22000B7
:1053A000C0B2FFF7E5FF31BD10B582B004000020A8
:1053B0000090002304221548E4B210EB84004188D9
:1053C0001248E4B210F82400FDF736FF13BD10B503
:1053D00004000E48E4B210EB840041880B48E4B2AC
:1053E00010F82400FFF7CCFF10BD10B504000748EB
:1053F000E4B210EB840041880448E4B210F82400C1
:10540000FFF7C8FF10BD00000060004094CF02000D
:1054100001000A6852F001020A60704701000A6840
:1054200032F002020A60704701000A6852F004027A
:105430000A60704701000A6852F008020A6070476B
:1054400001000A6832F010020A60704710B40200CE
:10545000136833F47063136013680C0214F47064FF
:105460002343136010BC70470200136809B20B435A
:1054700013607047020053685B085B005360536819
:10548000C9B20B435360704701000800406810F038
:1054900001007047020013009868C9B2084201D0A9
:1054A000012000E00020704738B504000D002848B6
:1054B000E4B250F8240003F098FC01212448E4B23F
:1054C00050F82400FFF7E6FF0028F6D12048E4B2A8
:1054D00050F82400FFF7B4FF1D48E4B250F8240050
:1054E000FFF796FF4FF480511948E4B250F82400BA
:1054F000FFF7BAFFEDB229001548E4B250F82400D6
:10550000FFF7A4FF1248E4B250F82400FFF78CFF25
:105510000F48E4B250F82400FFF78CFF0C48E4B2C7
:1055200050F82400FFF77AFF31BD10B50400084899
:10553000E4B250F82400FFF7A7FF012806D00121AC
:105540000348E4B250F82400FFF794FF10BD0000B8
:105550007CD2020080B503F07BFC00203349087048
:1055600000203349087001BD30B585B001A8FFF7B0
:105570009BFA00A803F047FD012851D19DF80000D7
:105580002A4948709DF80100284988709DF802005A
:105590002649C8709DF80A0001283ED1BDF80B00CD
:1055A00042F21071484340F2712190FBF1F00A2160
:1055B00090FBF1F00500002004001C4890F9010068
:1055C00003F047FD854201D201200400174890F9FD
:1055D000020003F03EFD854201D201200400134881
:1055E00090F9030003F035FD854201D2012004004B
:1055F000E4B2012C0DD10E480078002805D10D4BE6
:10560000012200210620FFF766FC012008490870EE
:1056100006E000200649087002E0002004490870F6
:1056200005B030BD0149096801607047E46E012092
:10563000FF6E0120D551020089B22B4AC0B224234B
:1056400003FB00221161704789B2274AC0B22423AC
:1056500003FB00225161704738B504000D0029009A
:1056600089B22000C0B2FFF7E7FF31BD38B50400B2
:105670000D00290089B22000C0B2FFF7E5FF31BD5F
:1056800080B54FF41650FCF771FA00F00CF800F0FA
:1056900014F84FF4FA70FCF771F900F014F813489D
:1056A00000F017F801BD80B500200090002304220F
:1056B00080210020FDF7C0FD01BD80B580210020C4
:1056C000FFF7D4FF01BD80B580210020FFF7C4FFA4
:1056D00001BD1FB5040000A805491022FCF71EF902
:1056E0000F2100A8A0471FBD00600040C71B02009B
:1056F000A8D002002DE9F84380460C005FF07E50F0
:10570000070000200500002C01D1280057E00020F0
:105710000600A64207D258F826002E2801D1B1462D
:1057200001E0761CF5E7A64200D1A1460020060064
:105730004E4517D2B9EB060018EB800050F8040C68
:10574000303803F08BFC390003F098FC290003F09B
:1057500001FD0500DFF87007390003F08FFC07003A
:10576000761CE5E70022DFF844380020DFF8401817
:1057700003F041FF04F058F9070019F10100060099
:10578000A6421BD258F82600303803F067FC3900D7
:1057900003F074FC290003F0DDFC05000022DFF8B3
:1057A0000C380020DFF8081803F025FF04F03CF95E
:1057B000390003F063FC0700761CE1E72800BDE830
:1057C000F2832DE9F24FA0B00400150001208146BC
:1057D00000208046002006000020070000208246AE
:1057E0002098824580F02D811AF804002C2804D0DE
:1057F0001AF804002A2840F01B81012F1CD0C0F0A9
:105800001381032F49D044D3052F00F08980C0F0C5
:105810007F80072F00F0C680C0F0BD80092F00F008
:10582000D780C0F0CA800B2F00F0F380C0F0E68074
:105830000C2F00F0F680F7E000980A21019A01FB96
:1058400000201038687102980A21039A01FB002099
:105850001038A87104980A21059A01FB002010381D
:10586000E87107208346B34510D200A8B6EB0B01C0
:10587000C91D10EB810050F8040C303809FB00887A
:105880000A2000FB09F91BF1010BECE7A5F80880E1
:10589000CAE0009885F8ED00C6E095F8ED005628BE
:1058A00000F0C2800120814600208046002083460F
:1058B000BBF1040F0ED200A8DBF1000110EB810058
:1058C000C068303809FB00880A2000FB09F91BF189
:1058D000010BEDE7A5F80B800120814600208046F2
:1058E00005208346B34510D200A8B6EB0B01491D35
:1058F00010EB810050F8040C303809FB00880A20B6
:1059000000FB09F91BF1010BECE7C5F80D808BE0FA
:1059100095F8ED00562800F087800098A87283E083
:1059200095F8ED00562800F07F8001208146002088
:10593000804600208346BBF1050F0ED200A8DBF1A4
:10594000000110EB81000069303809FB00880A2053
:1059500000FB09F91BF1010BEDE7A5F8128001200E
:1059600081460020804606208346B34510D200A819
:10597000B6EB0B01891D10EB810050F8040C303898
:1059800009FB00880A2000FB09F91BF1010BECE779
:10599000C5F8148048E095F8ED00562844D00098EA
:1059A000687441E095F8ED0056283DD0310000A81C
:1059B000FFF7A0FEC5F8EE0036E095F8ED0056289A
:1059C00032D0310000A8FFF795FEC5F8F2002BE0B9
:1059D00000980A21019A01FB0020103828710298D2
:1059E0000A21039A01FB00201038E87004980A216C
:1059F000059A01FB00201038A87015E095F8ED001D
:105A0000562811D0310000A8FFF774FEC5F8F60043
:105A10000AE095F8ED00562806D0009885F8FA00BF
